{
  "contractName": "CBTokenSale",
  "abi": [
    {
      "inputs": [
        {
          "internalType": "contract CBToken",
          "name": "_tokenContract",
          "type": "address"
        },
        {
          "internalType": "uint256",
          "name": "_price",
          "type": "uint256"
        }
      ],
      "stateMutability": "nonpayable",
      "type": "constructor"
    },
    {
      "anonymous": false,
      "inputs": [
        {
          "indexed": false,
          "internalType": "uint256",
          "name": "balanceOfBuyer",
          "type": "uint256"
        },
        {
          "indexed": false,
          "internalType": "uint256",
          "name": "tokenSold",
          "type": "uint256"
        }
      ],
      "name": "BuyTokens",
      "type": "event"
    },
    {
      "anonymous": false,
      "inputs": [
        {
          "indexed": false,
          "internalType": "uint256",
          "name": "balanceContract",
          "type": "uint256"
        },
        {
          "indexed": false,
          "internalType": "uint256",
          "name": "balanceSold",
          "type": "uint256"
        },
        {
          "indexed": false,
          "internalType": "uint256",
          "name": "tokenContract",
          "type": "uint256"
        }
      ],
      "name": "EndSale",
      "type": "event"
    },
    {
      "anonymous": false,
      "inputs": [
        {
          "indexed": false,
          "internalType": "uint256",
          "name": "balanceOfContract",
          "type": "uint256"
        }
      ],
      "name": "SetTokenSale",
      "type": "event"
    },
    {
      "inputs": [],
      "name": "admin",
      "outputs": [
        {
          "internalType": "address",
          "name": "",
          "type": "address"
        }
      ],
      "stateMutability": "view",
      "type": "function",
      "constant": true
    },
    {
      "inputs": [],
      "name": "currentTokenSale",
      "outputs": [
        {
          "internalType": "uint256",
          "name": "",
          "type": "uint256"
        }
      ],
      "stateMutability": "view",
      "type": "function",
      "constant": true
    },
    {
      "inputs": [],
      "name": "tokenContract",
      "outputs": [
        {
          "internalType": "contract CBToken",
          "name": "",
          "type": "address"
        }
      ],
      "stateMutability": "view",
      "type": "function",
      "constant": true
    },
    {
      "inputs": [],
      "name": "tokenPrice",
      "outputs": [
        {
          "internalType": "uint256",
          "name": "",
          "type": "uint256"
        }
      ],
      "stateMutability": "view",
      "type": "function",
      "constant": true
    },
    {
      "inputs": [],
      "name": "tokenSold",
      "outputs": [
        {
          "internalType": "uint256",
          "name": "",
          "type": "uint256"
        }
      ],
      "stateMutability": "view",
      "type": "function",
      "constant": true
    },
    {
      "inputs": [
        {
          "internalType": "uint256",
          "name": "_amount",
          "type": "uint256"
        }
      ],
      "name": "setCurrentTokenSale",
      "outputs": [],
      "stateMutability": "nonpayable",
      "type": "function"
    },
    {
      "inputs": [
        {
          "internalType": "uint256",
          "name": "_tokens",
          "type": "uint256"
        }
      ],
      "name": "buyTokens",
      "outputs": [
        {
          "internalType": "bool",
          "name": "result",
          "type": "bool"
        }
      ],
      "stateMutability": "payable",
      "type": "function",
      "payable": true
    },
    {
      "inputs": [],
      "name": "endSale",
      "outputs": [],
      "stateMutability": "payable",
      "type": "function",
      "payable": true
    }
  ],
  "bytecode": "0x60806040523480156200001157600080fd5b5060405162000eaa38038062000eaa8339818101604052810190620000379190620000f5565b336000806101000a81548173ffffffffffffffffffffffffffffffffffffffff021916908373ffffffffffffffffffffffffffffffffffffffff16021790555081600160006101000a81548173ffffffffffffffffffffffffffffffffffffffff021916908373ffffffffffffffffffffffffffffffffffffffff160217905550806002819055505050620001bc565b600081519050620000d88162000188565b92915050565b600081519050620000ef81620001a2565b92915050565b600080604083850312156200010957600080fd5b60006200011985828601620000c7565b92505060206200012c85828601620000de565b9150509250929050565b600062000143826200015e565b9050919050565b6000620001578262000136565b9050919050565b600073ffffffffffffffffffffffffffffffffffffffff82169050919050565b6000819050919050565b62000193816200014a565b81146200019f57600080fd5b50565b620001ad816200017e565b8114620001b957600080fd5b50565b610cde80620001cc6000396000f3fe60806040526004361061007b5760003560e01c806370322a7f1161004e57806370322a7f146101105780637ff9b596146101395780638868048914610164578063f851a4401461018f5761007b565b80633610724e14610080578063380d831b146100b0578063519ee19e146100ba57806355a373d6146100e5575b600080fd5b61009a6004803603810190610095919061094c565b6101ba565b6040516100a79190610a1e565b60405180910390f35b6100b86104b1565b005b3480156100c657600080fd5b506100cf6107ef565b6040516100dc9190610a54565b60405180910390f35b3480156100f157600080fd5b506100fa6107f5565b6040516101079190610a39565b60405180910390f35b34801561011c57600080fd5b506101376004803603810190610132919061094c565b61081b565b005b34801561014557600080fd5b5061014e61087d565b60405161015b9190610a54565b60405180910390f35b34801561017057600080fd5b50610179610883565b6040516101869190610a54565b60405180910390f35b34801561019b57600080fd5b506101a4610889565b6040516101b191906109da565b60405180910390f35b60006101c8826002546108ad565b34146101d357600080fd5b81600160009054906101000a900473ffffffffffffffffffffffffffffffffffffffff1673ffffffffffffffffffffffffffffffffffffffff166370a08231306040518263ffffffff1660e01b815260040161022f91906109da565b60206040518083038186803b15801561024757600080fd5b505afa15801561025b573d6000803e3d6000fd5b505050506040513d601f19601f8201168201806040525081019061027f9190610975565b101561028a57600080fd5b600160009054906101000a900473ffffffffffffffffffffffffffffffffffffffff1673ffffffffffffffffffffffffffffffffffffffff1663a9059cbb33846040518363ffffffff1660e01b81526004016102e79291906109f5565b602060405180830381600087803b15801561030157600080fd5b505af1158015610315573d6000803e3d6000fd5b505050506040513d601f19601f820116820180604052508101906103399190610923565b61034257600080fd5b81600360008282546103549190610acf565b925050819055507f9b759f68033e603c82b13cc014ebeb0c0d59e269a061682dc4a650b595bd83cf600160009054906101000a900473ffffffffffffffffffffffffffffffffffffffff1673ffffffffffffffffffffffffffffffffffffffff166370a08231336040518263ffffffff1660e01b81526004016103d791906109da565b60206040518083038186803b1580156103ef57600080fd5b505afa158015610403573d6000803e3d6000fd5b505050506040513d601f19601f820116820180604052508101906104279190610975565b600354604051610438929190610a6f565b60405180910390a160008054906101000a900473ffffffffffffffffffffffffffffffffffffffff1673ffffffffffffffffffffffffffffffffffffffff166108fc60009081150290604051600060405180830381858888f193505050501580156104a7573d6000803e3d6000fd5b5060019050919050565b60008054906101000a900473ffffffffffffffffffffffffffffffffffffffff1673ffffffffffffffffffffffffffffffffffffffff163373ffffffffffffffffffffffffffffffffffffffff161461050957600080fd5b600160009054906101000a900473ffffffffffffffffffffffffffffffffffffffff1673ffffffffffffffffffffffffffffffffffffffff1663a9059cbb60008054906101000a900473ffffffffffffffffffffffffffffffffffffffff16600160009054906101000a900473ffffffffffffffffffffffffffffffffffffffff1673ffffffffffffffffffffffffffffffffffffffff166370a08231306040518263ffffffff1660e01b81526004016105c391906109da565b60206040518083038186803b1580156105db57600080fd5b505afa1580156105ef573d6000803e3d6000fd5b505050506040513d601f19601f820116820180604052508101906106139190610975565b6040518363ffffffff1660e01b81526004016106309291906109f5565b602060405180830381600087803b15801561064a57600080fd5b505af115801561065e573d6000803e3d6000fd5b505050506040513d601f19601f820116820180604052508101906106829190610923565b61068b57600080fd5b600047905060008054906101000a900473ffffffffffffffffffffffffffffffffffffffff1673ffffffffffffffffffffffffffffffffffffffff166108fc479081150290604051600060405180830381858888f193505050501580156106f6573d6000803e3d6000fd5b50600060038190555060006004819055507f08ebcb793b900e8430fc2e07ac75147fb498a851d9b26f80789466511d110cf24782600160009054906101000a900473ffffffffffffffffffffffffffffffffffffffff1673ffffffffffffffffffffffffffffffffffffffff166370a08231306040518263ffffffff1660e01b815260040161078591906109da565b60206040518083038186803b15801561079d57600080fd5b505afa1580156107b1573d6000803e3d6000fd5b505050506040513d601f19601f820116820180604052508101906107d59190610975565b6040516107e493929190610a98565b60405180910390a150565b60035481565b600160009054906101000a900473ffffffffffffffffffffffffffffffffffffffff1681565b60008054906101000a900473ffffffffffffffffffffffffffffffffffffffff1673ffffffffffffffffffffffffffffffffffffffff163373ffffffffffffffffffffffffffffffffffffffff161461087357600080fd5b8060048190555050565b60025481565b60045481565b60008054906101000a900473ffffffffffffffffffffffffffffffffffffffff1681565b6000808214806108d55750828283856108c69190610b56565b9250826108d39190610b25565b145b6108de57600080fd5b92915050565b6000815190506108f381610c7a565b92915050565b60008135905061090881610c91565b92915050565b60008151905061091d81610c91565b92915050565b60006020828403121561093557600080fd5b6000610943848285016108e4565b91505092915050565b60006020828403121561095e57600080fd5b600061096c848285016108f9565b91505092915050565b60006020828403121561098757600080fd5b60006109958482850161090e565b91505092915050565b6109a781610bb0565b82525050565b6109b681610bc2565b82525050565b6109c581610bf8565b82525050565b6109d481610bee565b82525050565b60006020820190506109ef600083018461099e565b92915050565b6000604082019050610a0a600083018561099e565b610a1760208301846109cb565b9392505050565b6000602082019050610a3360008301846109ad565b92915050565b6000602082019050610a4e60008301846109bc565b92915050565b6000602082019050610a6960008301846109cb565b92915050565b6000604082019050610a8460008301856109cb565b610a9160208301846109cb565b9392505050565b6000606082019050610aad60008301866109cb565b610aba60208301856109cb565b610ac760408301846109cb565b949350505050565b6000610ada82610bee565b9150610ae583610bee565b9250827fffffffffffffffffffffffffffffffffffffffffffffffffffffffffffffffff03821115610b1a57610b19610c1c565b5b828201905092915050565b6000610b3082610bee565b9150610b3b83610bee565b925082610b4b57610b4a610c4b565b5b828204905092915050565b6000610b6182610bee565b9150610b6c83610bee565b9250817fffffffffffffffffffffffffffffffffffffffffffffffffffffffffffffffff0483118215151615610ba557610ba4610c1c565b5b828202905092915050565b6000610bbb82610bce565b9050919050565b60008115159050919050565b600073ffffffffffffffffffffffffffffffffffffffff82169050919050565b6000819050919050565b6000610c0382610c0a565b9050919050565b6000610c1582610bce565b9050919050565b7f4e487b7100000000000000000000000000000000000000000000000000000000600052601160045260246000fd5b7f4e487b7100000000000000000000000000000000000000000000000000000000600052601260045260246000fd5b610c8381610bc2565b8114610c8e57600080fd5b50565b610c9a81610bee565b8114610ca557600080fd5b5056fea264697066735822122001f2d08c2d5bbf364f2a45a15f6cf16f1200204cb0d95cac75516f825e618d9c64736f6c63430008040033",
  "immutableReferences": {},
  "source": "// SPDX-License-Identifier: GPL-3.0\r\n\r\nimport \"./CBToken.sol\";\r\n\r\npragma solidity >=0.7.0 <0.9.0;\r\n\r\ncontract CBTokenSale {\r\n    address public admin;\r\n    CBToken public tokenContract;\r\n    uint256 public tokenPrice;\r\n    uint256 public tokenSold;\r\n    uint256 public currentTokenSale;\r\n\r\n    event BuyTokens(uint256 balanceOfBuyer, uint256 tokenSold);\r\n\r\n    event SetTokenSale(uint256 balanceOfContract);\r\n\r\n    event EndSale(\r\n        uint256 balanceContract,\r\n        uint256 balanceSold,\r\n        uint256 tokenContract\r\n    );\r\n\r\n    constructor(CBToken _tokenContract, uint256 _price) {\r\n        admin = msg.sender;\r\n        tokenContract = _tokenContract;\r\n        tokenPrice = _price;\r\n    }\r\n\r\n    function setCurrentTokenSale(uint256 _amount) public {\r\n        require(msg.sender == admin);\r\n\r\n        currentTokenSale = _amount;\r\n    }\r\n\r\n    function multiply(uint256 x, uint256 y) internal pure returns (uint256 z) {\r\n        require(y == 0 || (z = x * y) / y == x);\r\n    }\r\n\r\n    function buyTokens(uint256 _tokens) public payable returns (bool result) {\r\n        require(msg.value == multiply(_tokens, tokenPrice));\r\n        require(tokenContract.balanceOf(address(this)) >= _tokens);\r\n        require(tokenContract.transfer(msg.sender, _tokens));\r\n\r\n        tokenSold += _tokens;\r\n\r\n        emit BuyTokens(tokenContract.balanceOf(msg.sender), tokenSold);\r\n\r\n        payable(admin).transfer(0);\r\n\r\n        return true;\r\n    }\r\n\r\n    function endSale() public payable {\r\n        require(msg.sender == admin);\r\n        require(\r\n            tokenContract.transfer(\r\n                admin,\r\n                tokenContract.balanceOf(address(this))\r\n            )\r\n        );\r\n        uint256 balanceContract = address(this).balance;\r\n        payable(admin).transfer(address(this).balance);\r\n\r\n        tokenSold = 0;\r\n        currentTokenSale = 0;\r\n\r\n        emit EndSale(\r\n            address(this).balance,\r\n            balanceContract,\r\n            tokenContract.balanceOf(address(this))\r\n        );\r\n    }\r\n}\r\n",
  "sourcePath": "D:/Disc D/CNTT/CNM/crowdfunding-blockchain/src/contracts/CBTokenSale.sol",
  "compiler": {
    "name": "solc",
    "version": "0.8.4+commit.c7e474f2.Emscripten.clang"
  },
  "schemaVersion": "3.4.1",
  "updatedAt": "2021-06-22T16:23:10.190Z",
  "networkType": "ethereum",
  "devdoc": {
    "kind": "dev",
    "methods": {},
    "version": 1
  },
  "userdoc": {
    "kind": "user",
    "methods": {},
    "version": 1
  }
}