{
  "contractName": "CBToken",
  "abi": [
    {
      "inputs": [
        {
          "internalType": "uint256",
          "name": "_initialSupply",
          "type": "uint256"
        }
      ],
      "stateMutability": "nonpayable",
      "type": "constructor"
    },
    {
      "anonymous": false,
      "inputs": [
        {
          "indexed": false,
          "internalType": "address",
          "name": "_owner",
          "type": "address"
        },
        {
          "indexed": false,
          "internalType": "address",
          "name": "_spender",
          "type": "address"
        },
        {
          "indexed": false,
          "internalType": "uint256",
          "name": "_value",
          "type": "uint256"
        }
      ],
      "name": "Approval",
      "type": "event"
    },
    {
      "anonymous": false,
      "inputs": [
        {
          "indexed": false,
          "internalType": "address",
          "name": "_from",
          "type": "address"
        },
        {
          "indexed": false,
          "internalType": "address",
          "name": "_to",
          "type": "address"
        },
        {
          "indexed": false,
          "internalType": "uint256",
          "name": "_value",
          "type": "uint256"
        }
      ],
      "name": "Transfer",
      "type": "event"
    },
    {
      "inputs": [
        {
          "internalType": "address",
          "name": "",
          "type": "address"
        },
        {
          "internalType": "address",
          "name": "",
          "type": "address"
        }
      ],
      "name": "allowance",
      "outputs": [
        {
          "internalType": "uint256",
          "name": "",
          "type": "uint256"
        }
      ],
      "stateMutability": "view",
      "type": "function",
      "constant": true
    },
    {
      "inputs": [
        {
          "internalType": "address",
          "name": "",
          "type": "address"
        }
      ],
      "name": "balanceOf",
      "outputs": [
        {
          "internalType": "uint256",
          "name": "",
          "type": "uint256"
        }
      ],
      "stateMutability": "view",
      "type": "function",
      "constant": true
    },
    {
      "inputs": [],
      "name": "name",
      "outputs": [
        {
          "internalType": "string",
          "name": "",
          "type": "string"
        }
      ],
      "stateMutability": "view",
      "type": "function",
      "constant": true
    },
    {
      "inputs": [],
      "name": "symbol",
      "outputs": [
        {
          "internalType": "string",
          "name": "",
          "type": "string"
        }
      ],
      "stateMutability": "view",
      "type": "function",
      "constant": true
    },
    {
      "inputs": [],
      "name": "tokenPrice",
      "outputs": [
        {
          "internalType": "uint256",
          "name": "",
          "type": "uint256"
        }
      ],
      "stateMutability": "view",
      "type": "function",
      "constant": true
    },
    {
      "inputs": [],
      "name": "totalSupply",
      "outputs": [
        {
          "internalType": "uint256",
          "name": "",
          "type": "uint256"
        }
      ],
      "stateMutability": "view",
      "type": "function",
      "constant": true
    },
    {
      "inputs": [
        {
          "internalType": "address",
          "name": "_to",
          "type": "address"
        },
        {
          "internalType": "uint256",
          "name": "_value",
          "type": "uint256"
        }
      ],
      "name": "transfer",
      "outputs": [
        {
          "internalType": "bool",
          "name": "result",
          "type": "bool"
        }
      ],
      "stateMutability": "payable",
      "type": "function",
      "payable": true
    },
    {
      "inputs": [
        {
          "internalType": "address",
          "name": "_spender",
          "type": "address"
        },
        {
          "internalType": "uint256",
          "name": "_value",
          "type": "uint256"
        }
      ],
      "name": "approve",
      "outputs": [
        {
          "internalType": "bool",
          "name": "result",
          "type": "bool"
        }
      ],
      "stateMutability": "nonpayable",
      "type": "function"
    },
    {
      "inputs": [
        {
          "internalType": "address",
          "name": "_from",
          "type": "address"
        },
        {
          "internalType": "address",
          "name": "_to",
          "type": "address"
        },
        {
          "internalType": "uint256",
          "name": "_value",
          "type": "uint256"
        }
      ],
      "name": "transferFrom",
      "outputs": [
        {
          "internalType": "bool",
          "name": "result",
          "type": "bool"
        }
      ],
      "stateMutability": "payable",
      "type": "function",
      "payable": true
    }
  ],
  "bytecode": "0x60806040526040518060400160405280602081526020017f43726f776466756e64696e6720627920426c6f636b636861696e20546f6b656e815250600090805190602001906200005192919062000171565b506040518060400160405280600381526020017f4342540000000000000000000000000000000000000000000000000000000000815250600190805190602001906200009f92919062000171565b5066038d7ea4c68000600355348015620000b857600080fd5b506040516200107f3803806200107f8339818101604052810190620000de919062000238565b80600560003373ffffffffffffffffffffffffffffffffffffffff1673ffffffffffffffffffffffffffffffffffffffff168152602001908152602001600020819055508060028190555033600460006101000a81548173ffffffffffffffffffffffffffffffffffffffff021916908373ffffffffffffffffffffffffffffffffffffffff16021790555050620002ed565b8280546200017f906200026e565b90600052602060002090601f016020900481019282620001a35760008555620001ef565b82601f10620001be57805160ff1916838001178555620001ef565b82800160010185558215620001ef579182015b82811115620001ee578251825591602001919060010190620001d1565b5b509050620001fe919062000202565b5090565b5b808211156200021d57600081600090555060010162000203565b5090565b6000815190506200023281620002d3565b92915050565b6000602082840312156200024b57600080fd5b60006200025b8482850162000221565b91505092915050565b6000819050919050565b600060028204905060018216806200028757607f821691505b602082108114156200029e576200029d620002a4565b5b50919050565b7f4e487b7100000000000000000000000000000000000000000000000000000000600052602260045260246000fd5b620002de8162000264565b8114620002ea57600080fd5b50565b610d8280620002fd6000396000f3fe6080604052600436106100865760003560e01c806370a082311161005957806370a082311461014e5780637ff9b5961461018b57806395d89b41146101b6578063a9059cbb146101e1578063dd62ed3e1461021157610086565b806306fdde031461008b578063095ea7b3146100b657806318160ddd146100f357806323b872dd1461011e575b600080fd5b34801561009757600080fd5b506100a061024e565b6040516100ad9190610b1f565b60405180910390f35b3480156100c257600080fd5b506100dd60048036038101906100d89190610a2b565b6102dc565b6040516100ea9190610b04565b60405180910390f35b3480156100ff57600080fd5b50610108610420565b6040516101159190610b41565b60405180910390f35b610138600480360381019061013391906109dc565b610426565b6040516101459190610b04565b60405180910390f35b34801561015a57600080fd5b5061017560048036038101906101709190610977565b6106fe565b6040516101829190610b41565b60405180910390f35b34801561019757600080fd5b506101a0610716565b6040516101ad9190610b41565b60405180910390f35b3480156101c257600080fd5b506101cb61071c565b6040516101d89190610b1f565b60405180910390f35b6101fb60048036038101906101f69190610a2b565b6107aa565b6040516102089190610b04565b60405180910390f35b34801561021d57600080fd5b50610238600480360381019061023391906109a0565b610928565b6040516102459190610b41565b60405180910390f35b6000805461025b90610c7d565b80601f016020809104026020016040519081016040528092919081815260200182805461028790610c7d565b80156102d45780601f106102a9576101008083540402835291602001916102d4565b820191906000526020600020905b8154815290600101906020018083116102b757829003601f168201915b505050505081565b600081600660003373ffffffffffffffffffffffffffffffffffffffff1673ffffffffffffffffffffffffffffffffffffffff16815260200190815260200160002060008573ffffffffffffffffffffffffffffffffffffffff1673ffffffffffffffffffffffffffffffffffffffff168152602001908152602001600020819055507f8c5be1e5ebec7d5bd14f71427d1e84f3dd0314c0f7b2291e5b200ac8c7c3b9253384600660003373ffffffffffffffffffffffffffffffffffffffff1673ffffffffffffffffffffffffffffffffffffffff16815260200190815260200160002060008773ffffffffffffffffffffffffffffffffffffffff1673ffffffffffffffffffffffffffffffffffffffff1681526020019081526020016000205460405161040e93929190610acd565b60405180910390a16001905092915050565b60025481565b600081600560008673ffffffffffffffffffffffffffffffffffffffff1673ffffffffffffffffffffffffffffffffffffffff16815260200190815260200160002054101561047457600080fd5b81600660008673ffffffffffffffffffffffffffffffffffffffff1673ffffffffffffffffffffffffffffffffffffffff16815260200190815260200160002060003373ffffffffffffffffffffffffffffffffffffffff1673ffffffffffffffffffffffffffffffffffffffff1681526020019081526020016000205410156104fd57600080fd5b81600560008673ffffffffffffffffffffffffffffffffffffffff1673ffffffffffffffffffffffffffffffffffffffff168152602001908152602001600020600082825461054c9190610bce565b9250508190555081600560008573ffffffffffffffffffffffffffffffffffffffff1673ffffffffffffffffffffffffffffffffffffffff16815260200190815260200160002060008282546105a29190610b78565b9250508190555081600660008673ffffffffffffffffffffffffffffffffffffffff1673ffffffffffffffffffffffffffffffffffffffff16815260200190815260200160002060003373ffffffffffffffffffffffffffffffffffffffff1673ffffffffffffffffffffffffffffffffffffffff16815260200190815260200160002060008282546106359190610bce565b925050819055507fddf252ad1be2c89b69c2b068fc378daa952ba7f163c4a11628f55a4df523b3ef8484600660008873ffffffffffffffffffffffffffffffffffffffff1673ffffffffffffffffffffffffffffffffffffffff16815260200190815260200160002060003373ffffffffffffffffffffffffffffffffffffffff1673ffffffffffffffffffffffffffffffffffffffff168152602001908152602001600020546040516106eb93929190610acd565b60405180910390a1600190509392505050565b60056020528060005260406000206000915090505481565b60035481565b6001805461072990610c7d565b80601f016020809104026020016040519081016040528092919081815260200182805461075590610c7d565b80156107a25780601f10610777576101008083540402835291602001916107a2565b820191906000526020600020905b81548152906001019060200180831161078557829003601f168201915b505050505081565b600081600560003373ffffffffffffffffffffffffffffffffffffffff1673ffffffffffffffffffffffffffffffffffffffff1681526020019081526020016000205410156107f857600080fd5b81600560003373ffffffffffffffffffffffffffffffffffffffff1673ffffffffffffffffffffffffffffffffffffffff16815260200190815260200160002060008282546108479190610bce565b9250508190555081600560008573ffffffffffffffffffffffffffffffffffffffff1673ffffffffffffffffffffffffffffffffffffffff168152602001908152602001600020600082825461089d9190610b78565b925050819055507fddf252ad1be2c89b69c2b068fc378daa952ba7f163c4a11628f55a4df523b3ef3384600560008773ffffffffffffffffffffffffffffffffffffffff1673ffffffffffffffffffffffffffffffffffffffff1681526020019081526020016000205460405161091693929190610acd565b60405180910390a16001905092915050565b6006602052816000526040600020602052806000526040600020600091509150505481565b60008135905061095c81610d1e565b92915050565b60008135905061097181610d35565b92915050565b60006020828403121561098957600080fd5b60006109978482850161094d565b91505092915050565b600080604083850312156109b357600080fd5b60006109c18582860161094d565b92505060206109d28582860161094d565b9150509250929050565b6000806000606084860312156109f157600080fd5b60006109ff8682870161094d565b9350506020610a108682870161094d565b9250506040610a2186828701610962565b9150509250925092565b60008060408385031215610a3e57600080fd5b6000610a4c8582860161094d565b9250506020610a5d85828601610962565b9150509250929050565b610a7081610c02565b82525050565b610a7f81610c14565b82525050565b6000610a9082610b5c565b610a9a8185610b67565b9350610aaa818560208601610c4a565b610ab381610d0d565b840191505092915050565b610ac781610c40565b82525050565b6000606082019050610ae26000830186610a67565b610aef6020830185610a67565b610afc6040830184610abe565b949350505050565b6000602082019050610b196000830184610a76565b92915050565b60006020820190508181036000830152610b398184610a85565b905092915050565b6000602082019050610b566000830184610abe565b92915050565b600081519050919050565b600082825260208201905092915050565b6000610b8382610c40565b9150610b8e83610c40565b9250827fffffffffffffffffffffffffffffffffffffffffffffffffffffffffffffffff03821115610bc357610bc2610caf565b5b828201905092915050565b6000610bd982610c40565b9150610be483610c40565b925082821015610bf757610bf6610caf565b5b828203905092915050565b6000610c0d82610c20565b9050919050565b60008115159050919050565b600073ffffffffffffffffffffffffffffffffffffffff82169050919050565b6000819050919050565b60005b83811015610c68578082015181840152602081019050610c4d565b83811115610c77576000848401525b50505050565b60006002820490506001821680610c9557607f821691505b60208210811415610ca957610ca8610cde565b5b50919050565b7f4e487b7100000000000000000000000000000000000000000000000000000000600052601160045260246000fd5b7f4e487b7100000000000000000000000000000000000000000000000000000000600052602260045260246000fd5b6000601f19601f8301169050919050565b610d2781610c02565b8114610d3257600080fd5b50565b610d3e81610c40565b8114610d4957600080fd5b5056fea2646970667358221220cbdc6ad78d67d768134f8420d1826ce0fbd62003f6e68322ceff48603ba974a664736f6c63430008040033",
  "immutableReferences": {},
  "source": "// SPDX-License-Identifier: GPL-3.0\r\n\r\npragma solidity >=0.7.0 <0.9.0;\r\n\r\ncontract CBToken {\r\n    string public name = \"Crowdfunding by Blockchain Token\";\r\n    string public symbol = \"CBT\";\r\n    uint256 public totalSupply;\r\n    uint256 public tokenPrice = 1000000000000000;\r\n    address owner;\r\n    event Transfer(address _from, address _to, uint256 _value);\r\n\r\n    event Approval(address _owner, address _spender, uint256 _value);\r\n\r\n    mapping(address => uint256) public balanceOf;\r\n    mapping(address => mapping(address => uint256)) public allowance;\r\n\r\n    constructor(uint256 _initialSupply) {\r\n        balanceOf[msg.sender] = _initialSupply;\r\n        totalSupply = _initialSupply;\r\n        owner = msg.sender;\r\n    }\r\n\r\n    function transfer(address _to, uint256 _value)\r\n        public\r\n        payable\r\n        returns (bool result)\r\n    {\r\n        require(balanceOf[msg.sender] >= _value);\r\n\r\n        balanceOf[msg.sender] -= _value;\r\n        balanceOf[_to] += _value;\r\n\r\n        emit Transfer(msg.sender, _to, balanceOf[_to]);\r\n        return true;\r\n    }\r\n\r\n    //limit spender use token\r\n    function approve(address _spender, uint256 _value)\r\n        public\r\n        returns (bool result)\r\n    {\r\n        allowance[msg.sender][_spender] = _value;\r\n\r\n        emit Approval(msg.sender, _spender, allowance[msg.sender][_spender]);\r\n\r\n        return true;\r\n    }\r\n\r\n    //spender use to transfer\r\n    function transferFrom(\r\n        address _from,\r\n        address _to,\r\n        uint256 _value\r\n    ) public payable returns (bool result) {\r\n        require(balanceOf[_from] >= _value);\r\n        require(allowance[_from][msg.sender] >= _value);\r\n\r\n        balanceOf[_from] -= _value;\r\n        balanceOf[_to] += _value;\r\n\r\n        allowance[_from][msg.sender] -= _value;\r\n\r\n        emit Transfer(_from, _to, allowance[_from][msg.sender]);\r\n\r\n        return true;\r\n    }\r\n}\r\n",
  "sourcePath": "D:/Disc D/CNTT/CNM/crowdfunding-blockchain/src/contracts/CBToken.sol",
  "compiler": {
    "name": "solc",
    "version": "0.8.4+commit.c7e474f2.Emscripten.clang"
  },
  "schemaVersion": "3.4.1",
  "updatedAt": "2021-06-22T16:23:10.155Z",
  "networkType": "ethereum",
  "devdoc": {
    "kind": "dev",
    "methods": {},
    "version": 1
  },
  "userdoc": {
    "kind": "user",
    "methods": {},
    "version": 1
  }
}