{
  "contractName": "Crowdfunding",
  "abi": [
    {
      "inputs": [
        {
          "internalType": "contract CBToken",
          "name": "_tokenContract",
          "type": "address"
        }
      ],
      "stateMutability": "nonpayable",
      "type": "constructor"
    },
    {
      "anonymous": false,
      "inputs": [
        {
          "indexed": false,
          "internalType": "uint256",
          "name": "state",
          "type": "uint256"
        }
      ],
      "name": "ChangeStateProject",
      "type": "event"
    },
    {
      "anonymous": false,
      "inputs": [
        {
          "indexed": false,
          "internalType": "uint256",
          "name": "id",
          "type": "uint256"
        },
        {
          "indexed": false,
          "internalType": "string",
          "name": "name",
          "type": "string"
        },
        {
          "indexed": false,
          "internalType": "uint256",
          "name": "amount",
          "type": "uint256"
        },
        {
          "indexed": false,
          "internalType": "uint256",
          "name": "ownerProjectLength",
          "type": "uint256"
        }
      ],
      "name": "CreateProject",
      "type": "event"
    },
    {
      "anonymous": false,
      "inputs": [
        {
          "indexed": false,
          "internalType": "uint256",
          "name": "endDate",
          "type": "uint256"
        },
        {
          "indexed": false,
          "internalType": "bool",
          "name": "isApprove",
          "type": "bool"
        },
        {
          "indexed": false,
          "internalType": "uint256",
          "name": "stateCount",
          "type": "uint256"
        }
      ],
      "name": "CreateStateProject",
      "type": "event"
    },
    {
      "anonymous": false,
      "inputs": [
        {
          "indexed": false,
          "internalType": "string",
          "name": "name",
          "type": "string"
        },
        {
          "indexed": false,
          "internalType": "string",
          "name": "email",
          "type": "string"
        },
        {
          "indexed": false,
          "internalType": "string",
          "name": "password",
          "type": "string"
        },
        {
          "indexed": false,
          "internalType": "string",
          "name": "accountType",
          "type": "string"
        },
        {
          "indexed": false,
          "internalType": "bool",
          "name": "isReg",
          "type": "bool"
        }
      ],
      "name": "CreatedAccount",
      "type": "event"
    },
    {
      "anonymous": false,
      "inputs": [
        {
          "indexed": false,
          "internalType": "uint256",
          "name": "amount",
          "type": "uint256"
        },
        {
          "indexed": false,
          "internalType": "uint256",
          "name": "rased",
          "type": "uint256"
        },
        {
          "indexed": false,
          "internalType": "uint256",
          "name": "payment",
          "type": "uint256"
        },
        {
          "indexed": false,
          "internalType": "uint256",
          "name": "balanceContract",
          "type": "uint256"
        }
      ],
      "name": "FundProject",
      "type": "event"
    },
    {
      "anonymous": false,
      "inputs": [
        {
          "indexed": false,
          "internalType": "uint256",
          "name": "refunc",
          "type": "uint256"
        }
      ],
      "name": "RemoveProject",
      "type": "event"
    },
    {
      "anonymous": false,
      "inputs": [
        {
          "indexed": false,
          "internalType": "bool",
          "name": "isApprove",
          "type": "bool"
        }
      ],
      "name": "SetApproveProject",
      "type": "event"
    },
    {
      "anonymous": false,
      "inputs": [
        {
          "indexed": false,
          "internalType": "uint256",
          "name": "coinReceipt",
          "type": "uint256"
        },
        {
          "indexed": false,
          "internalType": "uint256",
          "name": "balanceContract",
          "type": "uint256"
        }
      ],
      "name": "SetApproveStateProject",
      "type": "event"
    },
    {
      "anonymous": false,
      "inputs": [
        {
          "indexed": false,
          "internalType": "bool",
          "name": "isFinish",
          "type": "bool"
        },
        {
          "indexed": false,
          "internalType": "uint256",
          "name": "state",
          "type": "uint256"
        }
      ],
      "name": "SetFinishProject",
      "type": "event"
    },
    {
      "anonymous": false,
      "inputs": [
        {
          "indexed": false,
          "internalType": "address",
          "name": "investor",
          "type": "address"
        },
        {
          "indexed": false,
          "internalType": "uint256",
          "name": "iPproject",
          "type": "uint256"
        },
        {
          "indexed": false,
          "internalType": "address",
          "name": "owner",
          "type": "address"
        },
        {
          "indexed": false,
          "internalType": "uint256",
          "name": "percent",
          "type": "uint256"
        }
      ],
      "name": "SetInvestorApproved",
      "type": "event"
    },
    {
      "anonymous": false,
      "inputs": [
        {
          "indexed": false,
          "internalType": "address",
          "name": "investor",
          "type": "address"
        },
        {
          "indexed": false,
          "internalType": "uint256",
          "name": "project",
          "type": "uint256"
        },
        {
          "indexed": false,
          "internalType": "address",
          "name": "owner",
          "type": "address"
        },
        {
          "indexed": false,
          "internalType": "uint256",
          "name": "percent",
          "type": "uint256"
        }
      ],
      "name": "SetInvestorRejected",
      "type": "event"
    },
    {
      "inputs": [
        {
          "internalType": "address",
          "name": "",
          "type": "address"
        }
      ],
      "name": "accounts",
      "outputs": [
        {
          "internalType": "string",
          "name": "name",
          "type": "string"
        },
        {
          "internalType": "string",
          "name": "email",
          "type": "string"
        },
        {
          "internalType": "string",
          "name": "password",
          "type": "string"
        },
        {
          "internalType": "string",
          "name": "accountType",
          "type": "string"
        },
        {
          "internalType": "bool",
          "name": "isReg",
          "type": "bool"
        }
      ],
      "stateMutability": "view",
      "type": "function",
      "constant": true
    },
    {
      "inputs": [
        {
          "internalType": "uint256",
          "name": "",
          "type": "uint256"
        }
      ],
      "name": "detailProjects",
      "outputs": [
        {
          "internalType": "string",
          "name": "desc",
          "type": "string"
        },
        {
          "internalType": "uint256",
          "name": "startDate",
          "type": "uint256"
        },
        {
          "internalType": "uint256",
          "name": "endDate",
          "type": "uint256"
        }
      ],
      "stateMutability": "view",
      "type": "function",
      "constant": true
    },
    {
      "inputs": [],
      "name": "name",
      "outputs": [
        {
          "internalType": "string",
          "name": "",
          "type": "string"
        }
      ],
      "stateMutability": "view",
      "type": "function",
      "constant": true
    },
    {
      "inputs": [],
      "name": "projectCount",
      "outputs": [
        {
          "internalType": "uint256",
          "name": "",
          "type": "uint256"
        }
      ],
      "stateMutability": "view",
      "type": "function",
      "constant": true
    },
    {
      "inputs": [
        {
          "internalType": "address",
          "name": "",
          "type": "address"
        },
        {
          "internalType": "uint256",
          "name": "",
          "type": "uint256"
        }
      ],
      "name": "projects",
      "outputs": [
        {
          "internalType": "uint256",
          "name": "id",
          "type": "uint256"
        },
        {
          "internalType": "address",
          "name": "owner",
          "type": "address"
        },
        {
          "internalType": "string",
          "name": "name",
          "type": "string"
        },
        {
          "internalType": "uint256",
          "name": "amount",
          "type": "uint256"
        },
        {
          "internalType": "bool",
          "name": "isApprove",
          "type": "bool"
        },
        {
          "internalType": "bool",
          "name": "isFinished",
          "type": "bool"
        },
        {
          "internalType": "bool",
          "name": "isCreated",
          "type": "bool"
        },
        {
          "internalType": "uint256",
          "name": "state",
          "type": "uint256"
        },
        {
          "internalType": "uint256",
          "name": "rased",
          "type": "uint256"
        },
        {
          "internalType": "uint256",
          "name": "coinReceipt",
          "type": "uint256"
        },
        {
          "internalType": "uint256",
          "name": "stateCount",
          "type": "uint256"
        }
      ],
      "stateMutability": "view",
      "type": "function",
      "constant": true
    },
    {
      "inputs": [
        {
          "internalType": "uint256",
          "name": "",
          "type": "uint256"
        },
        {
          "internalType": "address",
          "name": "",
          "type": "address"
        }
      ],
      "name": "rases",
      "outputs": [
        {
          "internalType": "uint256",
          "name": "",
          "type": "uint256"
        }
      ],
      "stateMutability": "view",
      "type": "function",
      "constant": true
    },
    {
      "inputs": [
        {
          "internalType": "uint256",
          "name": "",
          "type": "uint256"
        },
        {
          "internalType": "uint256",
          "name": "",
          "type": "uint256"
        }
      ],
      "name": "stateProjects",
      "outputs": [
        {
          "internalType": "uint256",
          "name": "endDate",
          "type": "uint256"
        },
        {
          "internalType": "uint256",
          "name": "percentApproved",
          "type": "uint256"
        },
        {
          "internalType": "uint256",
          "name": "percentRemoved",
          "type": "uint256"
        },
        {
          "internalType": "bool",
          "name": "isApprove",
          "type": "bool"
        },
        {
          "internalType": "bool",
          "name": "isCreated",
          "type": "bool"
        }
      ],
      "stateMutability": "view",
      "type": "function",
      "constant": true
    },
    {
      "inputs": [],
      "name": "tokenContract",
      "outputs": [
        {
          "internalType": "contract CBToken",
          "name": "",
          "type": "address"
        }
      ],
      "stateMutability": "view",
      "type": "function",
      "constant": true
    },
    {
      "inputs": [],
      "name": "getAccountList",
      "outputs": [
        {
          "internalType": "address[]",
          "name": "",
          "type": "address[]"
        }
      ],
      "stateMutability": "view",
      "type": "function",
      "constant": true
    },
    {
      "inputs": [],
      "name": "getProjects",
      "outputs": [
        {
          "internalType": "uint256[]",
          "name": "",
          "type": "uint256[]"
        }
      ],
      "stateMutability": "view",
      "type": "function",
      "constant": true
    },
    {
      "inputs": [
        {
          "internalType": "uint256",
          "name": "idProject",
          "type": "uint256"
        }
      ],
      "name": "getInvestor",
      "outputs": [
        {
          "internalType": "address[]",
          "name": "",
          "type": "address[]"
        }
      ],
      "stateMutability": "view",
      "type": "function",
      "constant": true
    },
    {
      "inputs": [
        {
          "internalType": "uint256",
          "name": "idProject",
          "type": "uint256"
        },
        {
          "internalType": "address",
          "name": "owner",
          "type": "address"
        }
      ],
      "name": "checkVoted",
      "outputs": [
        {
          "internalType": "bool",
          "name": "voted",
          "type": "bool"
        }
      ],
      "stateMutability": "view",
      "type": "function",
      "constant": true
    },
    {
      "inputs": [
        {
          "internalType": "string",
          "name": "_name",
          "type": "string"
        },
        {
          "internalType": "string",
          "name": "_password",
          "type": "string"
        },
        {
          "internalType": "string",
          "name": "_email",
          "type": "string"
        }
      ],
      "name": "createAccountStartup",
      "outputs": [],
      "stateMutability": "nonpayable",
      "type": "function"
    },
    {
      "inputs": [
        {
          "internalType": "string",
          "name": "_name",
          "type": "string"
        },
        {
          "internalType": "string",
          "name": "_desc",
          "type": "string"
        },
        {
          "internalType": "uint256",
          "name": "_startDate",
          "type": "uint256"
        },
        {
          "internalType": "uint256",
          "name": "_endDate",
          "type": "uint256"
        },
        {
          "internalType": "uint256",
          "name": "amount",
          "type": "uint256"
        }
      ],
      "name": "createProject",
      "outputs": [],
      "stateMutability": "nonpayable",
      "type": "function"
    },
    {
      "inputs": [
        {
          "internalType": "uint256",
          "name": "idProject",
          "type": "uint256"
        },
        {
          "internalType": "uint256[]",
          "name": "endDate",
          "type": "uint256[]"
        }
      ],
      "name": "createStateProject",
      "outputs": [],
      "stateMutability": "nonpayable",
      "type": "function"
    },
    {
      "inputs": [
        {
          "internalType": "uint256",
          "name": "idProject",
          "type": "uint256"
        }
      ],
      "name": "setFinishProject",
      "outputs": [],
      "stateMutability": "nonpayable",
      "type": "function"
    },
    {
      "inputs": [
        {
          "internalType": "uint256",
          "name": "idProject",
          "type": "uint256"
        }
      ],
      "name": "changeStateProject",
      "outputs": [
        {
          "internalType": "bool",
          "name": "",
          "type": "bool"
        }
      ],
      "stateMutability": "nonpayable",
      "type": "function"
    },
    {
      "inputs": [
        {
          "internalType": "uint256",
          "name": "idProject",
          "type": "uint256"
        },
        {
          "internalType": "address",
          "name": "owner",
          "type": "address"
        }
      ],
      "name": "removeProject",
      "outputs": [],
      "stateMutability": "nonpayable",
      "type": "function"
    },
    {
      "inputs": [
        {
          "internalType": "uint256",
          "name": "x",
          "type": "uint256"
        },
        {
          "internalType": "uint256",
          "name": "y",
          "type": "uint256"
        }
      ],
      "name": "mul",
      "outputs": [
        {
          "internalType": "uint256",
          "name": "z",
          "type": "uint256"
        }
      ],
      "stateMutability": "pure",
      "type": "function",
      "constant": true
    },
    {
      "inputs": [
        {
          "internalType": "string",
          "name": "_name",
          "type": "string"
        },
        {
          "internalType": "string",
          "name": "_password",
          "type": "string"
        },
        {
          "internalType": "string",
          "name": "_email",
          "type": "string"
        }
      ],
      "name": "createAccountInvestor",
      "outputs": [],
      "stateMutability": "nonpayable",
      "type": "function"
    },
    {
      "inputs": [
        {
          "internalType": "uint256",
          "name": "idProject",
          "type": "uint256"
        },
        {
          "internalType": "address",
          "name": "owner",
          "type": "address"
        },
        {
          "internalType": "uint256",
          "name": "amount",
          "type": "uint256"
        }
      ],
      "name": "fundProject",
      "outputs": [],
      "stateMutability": "nonpayable",
      "type": "function"
    },
    {
      "inputs": [
        {
          "internalType": "uint256",
          "name": "idProject",
          "type": "uint256"
        },
        {
          "internalType": "address",
          "name": "owner",
          "type": "address"
        }
      ],
      "name": "setApproveProject",
      "outputs": [],
      "stateMutability": "nonpayable",
      "type": "function"
    },
    {
      "inputs": [
        {
          "internalType": "uint256",
          "name": "idProject",
          "type": "uint256"
        },
        {
          "internalType": "address",
          "name": "owner",
          "type": "address"
        }
      ],
      "name": "setApproveStateProject",
      "outputs": [],
      "stateMutability": "nonpayable",
      "type": "function"
    },
    {
      "inputs": [
        {
          "internalType": "uint256",
          "name": "idProject",
          "type": "uint256"
        },
        {
          "internalType": "address",
          "name": "owner",
          "type": "address"
        }
      ],
      "name": "setInvestorApproved",
      "outputs": [],
      "stateMutability": "nonpayable",
      "type": "function"
    },
    {
      "inputs": [
        {
          "internalType": "uint256",
          "name": "idProject",
          "type": "uint256"
        },
        {
          "internalType": "address",
          "name": "owner",
          "type": "address"
        }
      ],
      "name": "setInvestorRejected",
      "outputs": [],
      "stateMutability": "nonpayable",
      "type": "function"
    }
  ],
  "bytecode": "0x608060405260006002553480156200001657600080fd5b5060405162005a4238038062005a4283398181016040528101906200003c9190620001d9565b336000806101000a81548173ffffffffffffffffffffffffffffffffffffffff021916908373ffffffffffffffffffffffffffffffffffffffff16021790555080600460006101000a81548173ffffffffffffffffffffffffffffffffffffffff021916908373ffffffffffffffffffffffffffffffffffffffff1602179055506040518060400160405280600c81526020017f43726f776466756e64696e670000000000000000000000000000000000000000815250600190805190602001906200010a92919062000112565b5050620002cc565b82805462000120906200024d565b90600052602060002090601f01602090048101928262000144576000855562000190565b82601f106200015f57805160ff191683800117855562000190565b8280016001018555821562000190579182015b828111156200018f57825182559160200191906001019062000172565b5b5090506200019f9190620001a3565b5090565b5b80821115620001be576000816000905550600101620001a4565b5090565b600081519050620001d381620002b2565b92915050565b600060208284031215620001ec57600080fd5b6000620001fc84828501620001c2565b91505092915050565b600062000212826200022d565b9050919050565b6000620002268262000205565b9050919050565b600073ffffffffffffffffffffffffffffffffffffffff82169050919050565b600060028204905060018216806200026657607f821691505b602082108114156200027d576200027c62000283565b5b50919050565b7f4e487b7100000000000000000000000000000000000000000000000000000000600052602260045260246000fd5b620002bd8162000219565b8114620002c957600080fd5b50565b61576680620002dc6000396000f3fe608060405234801561001057600080fd5b50600436106101735760003560e01c80638d3fd2fd116100de578063d9c6cb2511610097578063ea57446211610071578063ea5744621461046a578063ebc425fb1461049a578063f05cfe65146104b6578063f81bf601146104ea57610173565b8063d9c6cb2514610414578063dcc6012814610430578063e7c020fd1461044e57610173565b80638d3fd2fd1461031c578063984de1e9146103385780639b8d72d9146103685780639fc1d76814610384578063c8a4ac9c146103b4578063c99dccf9146103e457610173565b80635be41ce1116101305780635be41ce11461023e5780635e5c06e21461025a57806370ad84f51461028e57806371ca7c3f146102aa5780637ecdd3c5146102c65780638b80104e1461030057610173565b806306fdde03146101785780631831585d146101965780632843314e146101b257806336fbad26146101d057806338d9697a146101ee57806355a373d614610220575b600080fd5b610180610506565b60405161018d9190614f3b565b60405180910390f35b6101b060048036038101906101ab9190614abe565b610594565b005b6101ba61098a565b6040516101c79190614e98565b60405180910390f35b6101d8610a18565b6040516101e59190615079565b60405180910390f35b61020860048036038101906102039190614a6c565b610a1e565b60405161021793929190614fcc565b60405180910390f35b610228610ad0565b6040516102359190614f20565b60405180910390f35b61025860048036038101906102539190614abe565b610af6565b005b610274600480360381019061026f91906148a0565b611145565b604051610285959493929190614f5d565b60405180910390f35b6102a860048036038101906102a39190614b49565b6113a8565b005b6102c460048036038101906102bf9190614afa565b6116c6565b005b6102e060048036038101906102db91906148c9565b611d9f565b6040516102f79b9a99989796959493929190615094565b60405180910390f35b61031a60048036038101906103159190614abe565b611ed5565b005b61033660048036038101906103319190614a6c565b6124ee565b005b610352600480360381019061034d9190614abe565b6128e6565b60405161035f9190614edc565b60405180910390f35b610382600480360381019061037d9190614abe565b6129d5565b005b61039e60048036038101906103999190614abe565b612d61565b6040516103ab9190615079565b60405180910390f35b6103ce60048036038101906103c99190614b9d565b612d86565b6040516103db9190615079565b60405180910390f35b6103fe60048036038101906103f99190614a6c565b612df3565b60405161040b9190614e98565b60405180910390f35b61042e6004803603810190610429919061492e565b612e97565b005b610438613316565b6040516104459190614eba565b60405180910390f35b61046860048036038101906104639190614abe565b6133ae565b005b610484600480360381019061047f9190614a6c565b61373a565b6040516104919190614edc565b60405180910390f35b6104b460048036038101906104af919061492e565b613b5f565b005b6104d060048036038101906104cb9190614b9d565b613f7b565b6040516104e19594939291906151f2565b60405180910390f35b61050460048036038101906104ff91906149c5565b613fd8565b005b6001805461051390615572565b80601f016020809104026020016040519081016040528092919081815260200182805461053f90615572565b801561058c5780601f106105615761010080835404028352916020019161058c565b820191906000526020600020905b81548152906001019060200180831161056f57829003601f168201915b505050505081565b60008054906101000a900473ffffffffffffffffffffffffffffffffffffffff1673ffffffffffffffffffffffffffffffffffffffff163373ffffffffffffffffffffffffffffffffffffffff16146105ec57600080fd5b600660008273ffffffffffffffffffffffffffffffffffffffff1673ffffffffffffffffffffffffffffffffffffffff168152602001908152602001600020600083815260200190815260200160002060040160029054906101000a900460ff1661065657600080fd5b600660008273ffffffffffffffffffffffffffffffffffffffff1673ffffffffffffffffffffffffffffffffffffffff168152602001908152602001600020600083815260200190815260200160002060040160019054906101000a900460ff16156106c157600080fd5b6000600660008373ffffffffffffffffffffffffffffffffffffffff1673ffffffffffffffffffffffffffffffffffffffff1681526020019081526020016000206000848152602001908152602001600020600801541161072157600080fd5b6000600660008373ffffffffffffffffffffffffffffffffffffffff1673ffffffffffffffffffffffffffffffffffffffff16815260200190815260200160002060008481526020019081526020016000209050600381600801541061079f5760018160040160006101000a81548160ff0219169083151502179055505b80600660008473ffffffffffffffffffffffffffffffffffffffff1673ffffffffffffffffffffffffffffffffffffffff1681526020019081526020016000206000858152602001908152602001600020600082015481600001556001820160009054906101000a900473ffffffffffffffffffffffffffffffffffffffff168160010160006101000a81548173ffffffffffffffffffffffffffffffffffffffff021916908373ffffffffffffffffffffffffffffffffffffffff160217905550600282018160020190805461087590615572565b61088092919061457a565b50600382015481600301556004820160009054906101000a900460ff168160040160006101000a81548160ff0219169083151502179055506004820160019054906101000a900460ff168160040160016101000a81548160ff0219169083151502179055506004820160029054906101000a900460ff168160040160026101000a81548160ff021916908315150217905550600582015481600501556006820154816006015560078201548160070155600882015481600801559050507f415cc1df788040fc886b3864a41004abe2b947b60c91fef85062428b0afdae408160040160009054906101000a900460ff1660405161097d9190614edc565b60405180910390a1505050565b60606003805480602002602001604051908101604052809291908181526020018280548015610a0e57602002820191906000526020600020905b8160009054906101000a900473ffffffffffffffffffffffffffffffffffffffff1673ffffffffffffffffffffffffffffffffffffffff16815260200190600101908083116109c4575b5050505050905090565b60025481565b6007602052806000526040600020600091509050806000018054610a4190615572565b80601f0160208091040260200160405190810160405280929190818152602001828054610a6d90615572565b8015610aba5780601f10610a8f57610100808354040283529160200191610aba565b820191906000526020600020905b815481529060010190602001808311610a9d57829003601f168201915b5050505050908060010154908060020154905083565b600460009054906101000a900473ffffffffffffffffffffffffffffffffffffffff1681565b600660008273ffffffffffffffffffffffffffffffffffffffff1673ffffffffffffffffffffffffffffffffffffffff168152602001908152602001600020600083815260200190815260200160002060040160029054906101000a900460ff16610b6057600080fd5b600660008273ffffffffffffffffffffffffffffffffffffffff1673ffffffffffffffffffffffffffffffffffffffff168152602001908152602001600020600083815260200190815260200160002060040160019054906101000a900460ff1615610bcb57600080fd5b6000600660008373ffffffffffffffffffffffffffffffffffffffff1673ffffffffffffffffffffffffffffffffffffffff16815260200190815260200160002060008481526020019081526020016000206008015411610c2b57600080fd5b6000600660008373ffffffffffffffffffffffffffffffffffffffff1673ffffffffffffffffffffffffffffffffffffffff168152602001908152602001600020600084815260200190815260200160002090506008600084815260200190815260200160002060008260050154815260200190815260200160002060030160009054906101000a900460ff1615610cc257600080fd5b60006008600085815260200190815260200160002060008360050154815260200190815260200160002060030160009054906101000a900460ff16158015610d35575060336008600086815260200190815260200160002060008460050154815260200190815260200160002060010154115b15611058578160080154826005015414610d7d57610d5b82600301548360080154612d86565b905080826007016000828254610d7191906153af565b92505081905550610da1565b81600701548260060154610d919190615490565b9050816006015482600701819055505b60016008600086815260200190815260200160002060008460050154815260200190815260200160002060030160006101000a81548160ff02191690831515021790555081600660008573ffffffffffffffffffffffffffffffffffffffff1673ffffffffffffffffffffffffffffffffffffffff1681526020019081526020016000206000868152602001908152602001600020600082015481600001556001820160009054906101000a900473ffffffffffffffffffffffffffffffffffffffff168160010160006101000a81548173ffffffffffffffffffffffffffffffffffffffff021916908373ffffffffffffffffffffffffffffffffffffffff1602179055506002820181600201908054610ebb90615572565b610ec692919061457a565b50600382015481600301556004820160009054906101000a900460ff168160040160006101000a81548160ff0219169083151502179055506004820160019054906101000a900460ff168160040160016101000a81548160ff0219169083151502179055506004820160029054906101000a900460ff168160040160026101000a81548160ff02191690831515021790555060058201548160050155600682015481600601556007820154816007015560088201548160080155905050600460009054906101000a900473ffffffffffffffffffffffffffffffffffffffff1673ffffffffffffffffffffffffffffffffffffffff1663a9059cbb8360010160009054906101000a900473ffffffffffffffffffffffffffffffffffffffff16836040518363ffffffff1660e01b8152600401611004929190614e2a565b602060405180830381600087803b15801561101e57600080fd5b505af1158015611032573d6000803e3d6000fd5b505050506040513d601f19601f820116820180604052508101906110569190614905565b505b7f3b82da9858dd110a6086af5cd8e0ce6290aad4647feedb2975d2cc15c21fa6008260070154600460009054906101000a900473ffffffffffffffffffffffffffffffffffffffff1673ffffffffffffffffffffffffffffffffffffffff166370a08231306040518263ffffffff1660e01b81526004016110d99190614dd8565b60206040518083038186803b1580156110f157600080fd5b505afa158015611105573d6000803e3d6000fd5b505050506040513d601f19601f820116820180604052508101906111299190614a95565b6040516111379291906151c9565b60405180910390a150505050565b600560205280600052604060002060009150905080600001805461116890615572565b80601f016020809104026020016040519081016040528092919081815260200182805461119490615572565b80156111e15780601f106111b6576101008083540402835291602001916111e1565b820191906000526020600020905b8154815290600101906020018083116111c457829003601f168201915b5050505050908060010180546111f690615572565b80601f016020809104026020016040519081016040528092919081815260200182805461122290615572565b801561126f5780601f106112445761010080835404028352916020019161126f565b820191906000526020600020905b81548152906001019060200180831161125257829003601f168201915b50505050509080600201805461128490615572565b80601f01602080910402602001604051908101604052809291908181526020018280546112b090615572565b80156112fd5780601f106112d2576101008083540402835291602001916112fd565b820191906000526020600020905b8154815290600101906020018083116112e057829003601f168201915b50505050509080600301805461131290615572565b80601f016020809104026020016040519081016040528092919081815260200182805461133e90615572565b801561138b5780601f106113605761010080835404028352916020019161138b565b820191906000526020600020905b81548152906001019060200180831161136e57829003601f168201915b5050505050908060040160009054906101000a900460ff16905085565b600660003373ffffffffffffffffffffffffffffffffffffffff1673ffffffffffffffffffffffffffffffffffffffff168152602001908152602001600020600083815260200190815260200160002060040160029054906101000a900460ff1661141257600080fd5b6000600660003373ffffffffffffffffffffffffffffffffffffffff1673ffffffffffffffffffffffffffffffffffffffff168152602001908152602001600020600084815260200190815260200160002090506000600660003373ffffffffffffffffffffffffffffffffffffffff1673ffffffffffffffffffffffffffffffffffffffff1681526020019081526020016000206000858152602001908152602001600020600801819055506000600190505b825181116116c0576000600860008460000154815260200190815260200160002060008381526020019081526020016000209050836001836115089190615490565b8151811061153f577f4e487b7100000000000000000000000000000000000000000000000000000000600052603260045260246000fd5b60200260200101518160000181905550600081600101819055506000816002018190555060008160030160006101000a81548160ff02191690831515021790555060018160030160016101000a81548160ff0219169083151502179055506001600660003373ffffffffffffffffffffffffffffffffffffffff1673ffffffffffffffffffffffffffffffffffffffff1681526020019081526020016000206000878152602001908152602001600020600801600082825461160191906153af565b925050819055507f9cb5f40c73a67f33ce129bf9ad156bc406d405338102f3941b5b50173f37a97581600001548260030160009054906101000a900460ff16600660003373ffffffffffffffffffffffffffffffffffffffff1673ffffffffffffffffffffffffffffffffffffffff1681526020019081526020016000206000898152602001908152602001600020600801546040516116a393929190615146565b60405180910390a1506001816116b991906153af565b90506114c6565b50505050565b600660008373ffffffffffffffffffffffffffffffffffffffff1673ffffffffffffffffffffffffffffffffffffffff168152602001908152602001600020600084815260200190815260200160002060040160009054906101000a900460ff1661173057600080fd5b600660008373ffffffffffffffffffffffffffffffffffffffff1673ffffffffffffffffffffffffffffffffffffffff168152602001908152602001600020600084815260200190815260200160002060040160029054906101000a900460ff1661179a57600080fd5b600660008373ffffffffffffffffffffffffffffffffffffffff1673ffffffffffffffffffffffffffffffffffffffff168152602001908152602001600020600084815260200190815260200160002060060154600660008473ffffffffffffffffffffffffffffffffffffffff1673ffffffffffffffffffffffffffffffffffffffff168152602001908152602001600020600085815260200190815260200160002060030154141561184d57600080fd5b600080600660008573ffffffffffffffffffffffffffffffffffffffff1673ffffffffffffffffffffffffffffffffffffffff168152602001908152602001600020600086815260200190815260200160002090506000600760008360000154815260200190815260200160002090506000826006015483600301546118d39190615490565b14611ca857816006015482600301546118ec9190615490565b84111561190e57816006015482600301546119079190615490565b9250611912565b8392505b600460009054906101000a900473ffffffffffffffffffffffffffffffffffffffff1673ffffffffffffffffffffffffffffffffffffffff166323b872dd3330866040518463ffffffff1660e01b815260040161197193929190614df3565b602060405180830381600087803b15801561198b57600080fd5b505af115801561199f573d6000803e3d6000fd5b505050506040513d601f19601f820116820180604052508101906119c39190614905565b506000600960008460000154815260200190815260200160002060003373ffffffffffffffffffffffffffffffffffffffff1673ffffffffffffffffffffffffffffffffffffffff168152602001908152602001600020541415611a875780600301339080600181540180825580915050600190039060005260206000200160009091909190916101000a81548173ffffffffffffffffffffffffffffffffffffffff021916908373ffffffffffffffffffffffffffffffffffffffff1602179055505b82826006016000828254611a9b91906153af565b92505081905550826009600088815260200190815260200160002060003373ffffffffffffffffffffffffffffffffffffffff1673ffffffffffffffffffffffffffffffffffffffff1681526020019081526020016000206000828254611b0291906153af565b9250508190555081600660008773ffffffffffffffffffffffffffffffffffffffff1673ffffffffffffffffffffffffffffffffffffffff1681526020019081526020016000206000888152602001908152602001600020600082015481600001556001820160009054906101000a900473ffffffffffffffffffffffffffffffffffffffff168160010160006101000a81548173ffffffffffffffffffffffffffffffffffffffff021916908373ffffffffffffffffffffffffffffffffffffffff1602179055506002820181600201908054611bdf90615572565b611bea92919061457a565b50600382015481600301556004820160009054906101000a900460ff168160040160006101000a81548160ff0219169083151502179055506004820160019054906101000a900460ff168160040160016101000a81548160ff0219169083151502179055506004820160029054906101000a900460ff168160040160026101000a81548160ff021916908315150217905550600582015481600501556006820154816006015560078201548160070155600882015481600801559050505b7f32ac12c96a6136619ea3a5475a7350c44bb1978258b04fdedf65983cc24f53fc8260030154836006015485600460009054906101000a900473ffffffffffffffffffffffffffffffffffffffff1673ffffffffffffffffffffffffffffffffffffffff166370a08231306040518263ffffffff1660e01b8152600401611d2f9190614dd8565b60206040518083038186803b158015611d4757600080fd5b505afa158015611d5b573d6000803e3d6000fd5b505050506040513d601f19601f82011682018060405250810190611d7f9190614a95565b604051611d8f9493929190615245565b60405180910390a1505050505050565b6006602052816000526040600020602052806000526040600020600091509150508060000154908060010160009054906101000a900473ffffffffffffffffffffffffffffffffffffffff1690806002018054611dfb90615572565b80601f0160208091040260200160405190810160405280929190818152602001828054611e2790615572565b8015611e745780601f10611e4957610100808354040283529160200191611e74565b820191906000526020600020905b815481529060010190602001808311611e5757829003601f168201915b5050505050908060030154908060040160009054906101000a900460ff16908060040160019054906101000a900460ff16908060040160029054906101000a900460ff1690806005015490806006015490806007015490806008015490508b565b600660008273ffffffffffffffffffffffffffffffffffffffff1673ffffffffffffffffffffffffffffffffffffffff168152602001908152602001600020600083815260200190815260200160002060040160019054906101000a900460ff1615611f4057600080fd5b600660008273ffffffffffffffffffffffffffffffffffffffff1673ffffffffffffffffffffffffffffffffffffffff168152602001908152602001600020600083815260200190815260200160002060040160009054906101000a900460ff16611faa57600080fd5b6000600660008373ffffffffffffffffffffffffffffffffffffffff1673ffffffffffffffffffffffffffffffffffffffff16815260200190815260200160002060008481526020019081526020016000209050600060076000858152602001908152602001600020905060008060009054906101000a900473ffffffffffffffffffffffffffffffffffffffff1673ffffffffffffffffffffffffffffffffffffffff163373ffffffffffffffffffffffffffffffffffffffff1614806120c157508260010160009054906101000a900473ffffffffffffffffffffffffffffffffffffffff1673ffffffffffffffffffffffffffffffffffffffff163373ffffffffffffffffffffffffffffffffffffffff16145b806120f857506033600860008781526020019081526020016000206000856005015481526020019081526020016000206002015410155b156124b05760005b82600301805490508110156122f357600083600301828154811061214d577f4e487b7100000000000000000000000000000000000000000000000000000000600052603260045260246000fd5b9060005260206000200160009054906101000a900473ffffffffffffffffffffffffffffffffffffffff16905060006009600089815260200190815260200160002060008373ffffffffffffffffffffffffffffffffffffffff1673ffffffffffffffffffffffffffffffffffffffff168152602001908152602001600020549050600086600301548760060154141561221a576000876007015488600601546121f79190615490565b905061221283826122089190615436565b8960030154612d86565b91505061221e565b8190505b808561222a91906153af565b9450600460009054906101000a900473ffffffffffffffffffffffffffffffffffffffff1673ffffffffffffffffffffffffffffffffffffffff1663a9059cbb84836040518363ffffffff1660e01b8152600401612289929190614e2a565b602060405180830381600087803b1580156122a357600080fd5b505af11580156122b7573d6000803e3d6000fd5b505050506040513d601f19601f820116820180604052508101906122db9190614905565b505050506001816122ec91906153af565b9050612100565b5060018360040160016101000a81548160ff02191690831515021790555082600660008673ffffffffffffffffffffffffffffffffffffffff1673ffffffffffffffffffffffffffffffffffffffff1681526020019081526020016000206000878152602001908152602001600020600082015481600001556001820160009054906101000a900473ffffffffffffffffffffffffffffffffffffffff168160010160006101000a81548173ffffffffffffffffffffffffffffffffffffffff021916908373ffffffffffffffffffffffffffffffffffffffff16021790555060028201816002019080546123e790615572565b6123f292919061457a565b50600382015481600301556004820160009054906101000a900460ff168160040160006101000a81548160ff0219169083151502179055506004820160019054906101000a900460ff168160040160016101000a81548160ff0219169083151502179055506004820160029054906101000a900460ff168160040160026101000a81548160ff021916908315150217905550600582015481600501556006820154816006015560078201548160070155600882015481600801559050505b7facc6eefb73b96c769b566e4896354d3b59b706594c24cbf98ae1c487eb8bd2ff816040516124df9190615079565b60405180910390a15050505050565b600660003373ffffffffffffffffffffffffffffffffffffffff1673ffffffffffffffffffffffffffffffffffffffff168152602001908152602001600020600082815260200190815260200160002060040160029054906101000a900460ff1661255857600080fd5b600660003373ffffffffffffffffffffffffffffffffffffffff1673ffffffffffffffffffffffffffffffffffffffff168152602001908152602001600020600082815260200190815260200160002060040160009054906101000a900460ff166125c257600080fd5b600660003373ffffffffffffffffffffffffffffffffffffffff1673ffffffffffffffffffffffffffffffffffffffff168152602001908152602001600020600082815260200190815260200160002060040160019054906101000a900460ff161561262d57600080fd5b6000600660003373ffffffffffffffffffffffffffffffffffffffff1673ffffffffffffffffffffffffffffffffffffffff168152602001908152602001600020600083815260200190815260200160002090506000600860008481526020019081526020016000206000836005015481526020019081526020016000209050816008015482600501541480156126d257508060030160009054906101000a900460ff165b156126f55760018260040160016101000a81548160ff0219169083151502179055505b81600660003373ffffffffffffffffffffffffffffffffffffffff1673ffffffffffffffffffffffffffffffffffffffff1681526020019081526020016000206000858152602001908152602001600020600082015481600001556001820160009054906101000a900473ffffffffffffffffffffffffffffffffffffffff168160010160006101000a81548173ffffffffffffffffffffffffffffffffffffffff021916908373ffffffffffffffffffffffffffffffffffffffff16021790555060028201816002019080546127cb90615572565b6127d692919061457a565b50600382015481600301556004820160009054906101000a900460ff168160040160006101000a81548160ff0219169083151502179055506004820160019054906101000a900460ff168160040160016101000a81548160ff0219169083151502179055506004820160029054906101000a900460ff168160040160026101000a81548160ff021916908315150217905550600582015481600501556006820154816006015560078201548160070155600882015481600801559050507fb037b16e849d11545d9b2134713ef3b9fa53559dafa66c043dc502bbd342b2758260040160019054906101000a900460ff1683600501546040516128d9929190614ef7565b60405180910390a1505050565b600080600660008473ffffffffffffffffffffffffffffffffffffffff1673ffffffffffffffffffffffffffffffffffffffff168152602001908152602001600020600085815260200190815260200160002090508060040160009054906101000a900460ff1661295657600080fd5b6008600085815260200190815260200160002060008260050154815260200190815260200160002060040160003373ffffffffffffffffffffffffffffffffffffffff1673ffffffffffffffffffffffffffffffffffffffff16815260200190815260200160002060009054906101000a900460ff1691505092915050565b600660008273ffffffffffffffffffffffffffffffffffffffff1673ffffffffffffffffffffffffffffffffffffffff168152602001908152602001600020600083815260200190815260200160002060040160029054906101000a900460ff16612a3f57600080fd5b600660008273ffffffffffffffffffffffffffffffffffffffff1673ffffffffffffffffffffffffffffffffffffffff168152602001908152602001600020600083815260200190815260200160002060040160019054906101000a900460ff1615612aaa57600080fd5b6000600660008373ffffffffffffffffffffffffffffffffffffffff1673ffffffffffffffffffffffffffffffffffffffff16815260200190815260200160002060008481526020019081526020016000206008015411612b0a57600080fd5b6000600660008373ffffffffffffffffffffffffffffffffffffffff1673ffffffffffffffffffffffffffffffffffffffff168152602001908152602001600020600084815260200190815260200160002090506008600084815260200190815260200160002060008260050154815260200190815260200160002060030160009054906101000a900460ff1615612ba157600080fd5b60006008600085815260200190815260200160002060008360050154815260200190815260200160002090508060040160003373ffffffffffffffffffffffffffffffffffffffff1673ffffffffffffffffffffffffffffffffffffffff16815260200190815260200160002060009054906101000a900460ff1615612c2657600080fd5b60006009600086815260200190815260200160002060003373ffffffffffffffffffffffffffffffffffffffff1673ffffffffffffffffffffffffffffffffffffffff1681526020019081526020016000205490506000612c97606483612c8d9190615436565b8560030154612d86565b905080836001016000828254612cad91906153af565b9250508190555060018360040160003373ffffffffffffffffffffffffffffffffffffffff1673ffffffffffffffffffffffffffffffffffffffff16815260200190815260200160002060006101000a81548160ff0219169083151502179055507f6a1a2b90186c4faf45fd4994f9aab4c2deebbde6e8bbdfeee77692e23221e32f3387878660010154604051612d479493929190614e53565b60405180910390a1612d598686610af6565b505050505050565b6009602052816000526040600020602052806000526040600020600091509150505481565b6000808284612d959190615405565b9050600083600a86612da79190615436565b612db19190615405565b905060006005600a84612dc49190615436565b612dce91906153af565b9050808210612de757600183612de491906153af565b92505b82935050505092915050565b606060076000838152602001908152602001600020600301805480602002602001604051908101604052809291908181526020018280548015612e8b57602002820191906000526020600020905b8160009054906101000a900473ffffffffffffffffffffffffffffffffffffffff1673ffffffffffffffffffffffffffffffffffffffff1681526020019060010190808311612e41575b50505050509050919050565b6000835111612ea557600080fd5b6000815111612eb357600080fd5b6000825111612ec157600080fd5b600560003373ffffffffffffffffffffffffffffffffffffffff1673ffffffffffffffffffffffffffffffffffffffff16815260200190815260200160002060040160009054906101000a900460ff1615612f1b57600080fd5b6000600560003373ffffffffffffffffffffffffffffffffffffffff1673ffffffffffffffffffffffffffffffffffffffff168152602001908152602001600020905083816000019080519060200190612f76929190614607565b5081816001019080519060200190612f8f929190614607565b5082816002019080519060200190612fa8929190614607565b506040518060400160405280600781526020017f5374617274757000000000000000000000000000000000000000000000000000815250816003019080519060200190612ff6929190614607565b5060018160040160006101000a81548160ff02191690831515021790555080600560003373ffffffffffffffffffffffffffffffffffffffff1673ffffffffffffffffffffffffffffffffffffffff168152602001908152602001600020600082018160000190805461306890615572565b61307392919061457a565b50600182018160010190805461308890615572565b61309392919061457a565b5060028201816002019080546130a890615572565b6130b392919061457a565b5060038201816003019080546130c890615572565b6130d392919061457a565b506004820160009054906101000a900460ff168160040160006101000a81548160ff021916908315150217905550600582018160050190805461311792919061468d565b509050506003339080600181540180825580915050600190039060005260206000200160009091909190916101000a81548173ffffffffffffffffffffffffffffffffffffffff021916908373ffffffffffffffffffffffffffffffffffffffff1602179055507f49a6a698aa62d64a2dee957ef3ab0ad9a2e20e3dcca17b408423db21826b00be600560003373ffffffffffffffffffffffffffffffffffffffff1673ffffffffffffffffffffffffffffffffffffffff168152602001908152602001600020600001600560003373ffffffffffffffffffffffffffffffffffffffff1673ffffffffffffffffffffffffffffffffffffffff168152602001908152602001600020600101600560003373ffffffffffffffffffffffffffffffffffffffff1673ffffffffffffffffffffffffffffffffffffffff168152602001908152602001600020600201600560003373ffffffffffffffffffffffffffffffffffffffff1673ffffffffffffffffffffffffffffffffffffffff168152602001908152602001600020600301600560003373ffffffffffffffffffffffffffffffffffffffff1673ffffffffffffffffffffffffffffffffffffffff16815260200190815260200160002060040160009054906101000a900460ff1660405161330895949392919061500a565b60405180910390a150505050565b6060600560003373ffffffffffffffffffffffffffffffffffffffff1673ffffffffffffffffffffffffffffffffffffffff1681526020019081526020016000206005018054806020026020016040519081016040528092919081815260200182805480156133a457602002820191906000526020600020905b815481526020019060010190808311613390575b5050505050905090565b600660008273ffffffffffffffffffffffffffffffffffffffff1673ffffffffffffffffffffffffffffffffffffffff168152602001908152602001600020600083815260200190815260200160002060040160029054906101000a900460ff1661341857600080fd5b600660008273ffffffffffffffffffffffffffffffffffffffff1673ffffffffffffffffffffffffffffffffffffffff168152602001908152602001600020600083815260200190815260200160002060040160019054906101000a900460ff161561348357600080fd5b6000600660008373ffffffffffffffffffffffffffffffffffffffff1673ffffffffffffffffffffffffffffffffffffffff168152602001908152602001600020600084815260200190815260200160002060080154116134e357600080fd5b6000600660008373ffffffffffffffffffffffffffffffffffffffff1673ffffffffffffffffffffffffffffffffffffffff168152602001908152602001600020600084815260200190815260200160002090506008600084815260200190815260200160002060008260050154815260200190815260200160002060030160009054906101000a900460ff161561357a57600080fd5b60006008600085815260200190815260200160002060008360050154815260200190815260200160002090508060040160003373ffffffffffffffffffffffffffffffffffffffff1673ffffffffffffffffffffffffffffffffffffffff16815260200190815260200160002060009054906101000a900460ff16156135ff57600080fd5b60006009600086815260200190815260200160002060003373ffffffffffffffffffffffffffffffffffffffff1673ffffffffffffffffffffffffffffffffffffffff16815260200190815260200160002054905060006136706064836136669190615436565b8560030154612d86565b90508083600201600082825461368691906153af565b9250508190555060018360040160003373ffffffffffffffffffffffffffffffffffffffff1673ffffffffffffffffffffffffffffffffffffffff16815260200190815260200160002060006101000a81548160ff0219169083151502179055507f15e899dab60f88de883f5be6ecd5edfae0598a1167e2f67ef7e174d61a13916333878786600201546040516137209493929190614e53565b60405180910390a16137328686611ed5565b505050505050565b6000600660003373ffffffffffffffffffffffffffffffffffffffff1673ffffffffffffffffffffffffffffffffffffffff168152602001908152602001600020600083815260200190815260200160002060040160029054906101000a900460ff166137a657600080fd5b600660003373ffffffffffffffffffffffffffffffffffffffff1673ffffffffffffffffffffffffffffffffffffffff168152602001908152602001600020600083815260200190815260200160002060040160009054906101000a900460ff1661381057600080fd5b600660003373ffffffffffffffffffffffffffffffffffffffff1673ffffffffffffffffffffffffffffffffffffffff168152602001908152602001600020600083815260200190815260200160002060040160019054906101000a900460ff161561387b57600080fd5b600080600660003373ffffffffffffffffffffffffffffffffffffffff1673ffffffffffffffffffffffffffffffffffffffff16815260200190815260200160002060008581526020019081526020016000209050600081600501541461394a576000600860008360000154815260200190815260200160002060008360050154815260200190815260200160002090508060030160009054906101000a900460ff161561394457600182600501600082825461393891906153af565b92505081905550600192505b5061397c565b80600301548160060154141561397b5760019150600181600501600082825461397391906153af565b925050819055505b5b80600660003373ffffffffffffffffffffffffffffffffffffffff1673ffffffffffffffffffffffffffffffffffffffff1681526020019081526020016000206000868152602001908152602001600020600082015481600001556001820160009054906101000a900473ffffffffffffffffffffffffffffffffffffffff168160010160006101000a81548173ffffffffffffffffffffffffffffffffffffffff021916908373ffffffffffffffffffffffffffffffffffffffff1602179055506002820181600201908054613a5290615572565b613a5d92919061457a565b50600382015481600301556004820160009054906101000a900460ff168160040160006101000a81548160ff0219169083151502179055506004820160019054906101000a900460ff168160040160016101000a81548160ff0219169083151502179055506004820160029054906101000a900460ff168160040160026101000a81548160ff021916908315150217905550600582015481600501556006820154816006015560078201548160070155600882015481600801559050507fcff5a0b34af59367c92984c5d62c41aa44cc0bca9a1798d1e37fc7594d2a52078160050154604051613b4d9190615079565b60405180910390a18192505050919050565b6000835111613b6d57600080fd5b6000815111613b7b57600080fd5b6000825111613b8957600080fd5b600560003373ffffffffffffffffffffffffffffffffffffffff1673ffffffffffffffffffffffffffffffffffffffff16815260200190815260200160002060040160009054906101000a900460ff1615613be357600080fd5b6000600560003373ffffffffffffffffffffffffffffffffffffffff1673ffffffffffffffffffffffffffffffffffffffff168152602001908152602001600020905083816000019080519060200190613c3e929190614607565b5081816001019080519060200190613c57929190614607565b5082816002019080519060200190613c70929190614607565b506040518060400160405280600881526020017f496e766573746f72000000000000000000000000000000000000000000000000815250816003019080519060200190613cbe929190614607565b5060018160040160006101000a81548160ff02191690831515021790555080600560003373ffffffffffffffffffffffffffffffffffffffff1673ffffffffffffffffffffffffffffffffffffffff1681526020019081526020016000206000820181600001908054613d3090615572565b613d3b92919061457a565b506001820181600101908054613d5090615572565b613d5b92919061457a565b506002820181600201908054613d7090615572565b613d7b92919061457a565b506003820181600301908054613d9090615572565b613d9b92919061457a565b506004820160009054906101000a900460ff168160040160006101000a81548160ff0219169083151502179055506005820181600501908054613ddf92919061468d565b509050507f49a6a698aa62d64a2dee957ef3ab0ad9a2e20e3dcca17b408423db21826b00be600560003373ffffffffffffffffffffffffffffffffffffffff1673ffffffffffffffffffffffffffffffffffffffff168152602001908152602001600020600001600560003373ffffffffffffffffffffffffffffffffffffffff1673ffffffffffffffffffffffffffffffffffffffff168152602001908152602001600020600101600560003373ffffffffffffffffffffffffffffffffffffffff1673ffffffffffffffffffffffffffffffffffffffff168152602001908152602001600020600201600560003373ffffffffffffffffffffffffffffffffffffffff1673ffffffffffffffffffffffffffffffffffffffff168152602001908152602001600020600301600560003373ffffffffffffffffffffffffffffffffffffffff1673ffffffffffffffffffffffffffffffffffffffff16815260200190815260200160002060040160009054906101000a900460ff16604051613f6d95949392919061500a565b60405180910390a150505050565b6008602052816000526040600020602052806000526040600020600091509150508060000154908060010154908060020154908060030160009054906101000a900460ff16908060030160019054906101000a900460ff16905085565b6000855111613fe657600080fd5b6000845111613ff457600080fd5b6000831161400157600080fd5b6000821161400e57600080fd5b6000811161401b57600080fd5b600660003373ffffffffffffffffffffffffffffffffffffffff1673ffffffffffffffffffffffffffffffffffffffff1681526020019081526020016000206000600160025461406b91906153af565b815260200190815260200160002060040160029054906101000a900460ff161561409457600080fd5b600073ffffffffffffffffffffffffffffffffffffffff163373ffffffffffffffffffffffffffffffffffffffff1614156140ce57600080fd5b600260008154809291906140e1906155d5565b91905055506000600660003373ffffffffffffffffffffffffffffffffffffffff1673ffffffffffffffffffffffffffffffffffffffff1681526020019081526020016000206000600254815260200190815260200160002090506002548160000181905550338160010160006101000a81548173ffffffffffffffffffffffffffffffffffffffff021916908373ffffffffffffffffffffffffffffffffffffffff160217905550858160020190805190602001906141a2929190614607565b5081816003018190555060008160040160006101000a81548160ff02191690831515021790555060008160040160016101000a81548160ff02191690831515021790555060018160040160026101000a81548160ff021916908315150217905550600081600501819055506000816006018190555060008160080181905550600081600701819055506000600760008360000154815260200190815260200160002090508581600001908051906020019061425e929190614607565b50848160010181905550838160020181905550806007600084600001548152602001908152602001600020600082018160000190805461429d90615572565b6142a892919061457a565b50600182015481600101556002820154816002015560038201816003019080546142d39291906146df565b5090505081600660003373ffffffffffffffffffffffffffffffffffffffff1673ffffffffffffffffffffffffffffffffffffffff16815260200190815260200160002060006002548152602001908152602001600020600082015481600001556001820160009054906101000a900473ffffffffffffffffffffffffffffffffffffffff168160010160006101000a81548173ffffffffffffffffffffffffffffffffffffffff021916908373ffffffffffffffffffffffffffffffffffffffff16021790555060028201816002019080546143af90615572565b6143ba92919061457a565b50600382015481600301556004820160009054906101000a900460ff168160040160006101000a81548160ff0219169083151502179055506004820160019054906101000a900460ff168160040160016101000a81548160ff0219169083151502179055506004820160029054906101000a900460ff168160040160026101000a81548160ff02191690831515021790555060058201548160050155600682015481600601556007820154816007015560088201548160080155905050600560003373ffffffffffffffffffffffffffffffffffffffff1673ffffffffffffffffffffffffffffffffffffffff168152602001908152602001600020600501826000015490806001815401808255809150506001900390600052602060002001600090919091909150557fca9771e8e1892fc20e0cc15eeaec505db0015b5c1a8d97158ca0280ec69c7e078260000154836002018460030154600560003373ffffffffffffffffffffffffffffffffffffffff1673ffffffffffffffffffffffffffffffffffffffff16815260200190815260200160002060050180549050604051614569949392919061517d565b60405180910390a150505050505050565b82805461458690615572565b90600052602060002090601f0160209004810192826145a857600085556145f6565b82601f106145b957805485556145f6565b828001600101855582156145f657600052602060002091601f016020900482015b828111156145f55782548255916001019190600101906145da565b5b5090506146039190614731565b5090565b82805461461390615572565b90600052602060002090601f016020900481019282614635576000855561467c565b82601f1061464e57805160ff191683800117855561467c565b8280016001018555821561467c579182015b8281111561467b578251825591602001919060010190614660565b5b5090506146899190614731565b5090565b8280548282559060005260206000209081019282156146ce5760005260206000209182015b828111156146cd5782548255916001019190600101906146b2565b5b5090506146db9190614731565b5090565b8280548282559060005260206000209081019282156147205760005260206000209182015b8281111561471f578254825591600101919060010190614704565b5b50905061472d9190614731565b5090565b5b8082111561474a576000816000905550600101614732565b5090565b600061476161475c846152af565b61528a565b9050808382526020820190508285602086028201111561478057600080fd5b60005b858110156147b057816147968882614876565b845260208401935060208301925050600181019050614783565b5050509392505050565b60006147cd6147c8846152db565b61528a565b9050828152602081018484840111156147e557600080fd5b6147f0848285615530565b509392505050565b600081359050614807816156eb565b92915050565b600082601f83011261481e57600080fd5b813561482e84826020860161474e565b91505092915050565b60008151905061484681615702565b92915050565b600082601f83011261485d57600080fd5b813561486d8482602086016147ba565b91505092915050565b60008135905061488581615719565b92915050565b60008151905061489a81615719565b92915050565b6000602082840312156148b257600080fd5b60006148c0848285016147f8565b91505092915050565b600080604083850312156148dc57600080fd5b60006148ea858286016147f8565b92505060206148fb85828601614876565b9150509250929050565b60006020828403121561491757600080fd5b600061492584828501614837565b91505092915050565b60008060006060848603121561494357600080fd5b600084013567ffffffffffffffff81111561495d57600080fd5b6149698682870161484c565b935050602084013567ffffffffffffffff81111561498657600080fd5b6149928682870161484c565b925050604084013567ffffffffffffffff8111156149af57600080fd5b6149bb8682870161484c565b9150509250925092565b600080600080600060a086880312156149dd57600080fd5b600086013567ffffffffffffffff8111156149f757600080fd5b614a038882890161484c565b955050602086013567ffffffffffffffff811115614a2057600080fd5b614a2c8882890161484c565b9450506040614a3d88828901614876565b9350506060614a4e88828901614876565b9250506080614a5f88828901614876565b9150509295509295909350565b600060208284031215614a7e57600080fd5b6000614a8c84828501614876565b91505092915050565b600060208284031215614aa757600080fd5b6000614ab58482850161488b565b91505092915050565b60008060408385031215614ad157600080fd5b6000614adf85828601614876565b9250506020614af0858286016147f8565b9150509250929050565b600080600060608486031215614b0f57600080fd5b6000614b1d86828701614876565b9350506020614b2e868287016147f8565b9250506040614b3f86828701614876565b9150509250925092565b60008060408385031215614b5c57600080fd5b6000614b6a85828601614876565b925050602083013567ffffffffffffffff811115614b8757600080fd5b614b938582860161480d565b9150509250929050565b60008060408385031215614bb057600080fd5b6000614bbe85828601614876565b9250506020614bcf85828601614876565b9150509250929050565b6000614be58383614c09565b60208301905092915050565b6000614bfd8383614dba565b60208301905092915050565b614c12816154c4565b82525050565b614c21816154c4565b82525050565b6000614c3282615341565b614c3c818561537c565b9350614c478361530c565b8060005b83811015614c78578151614c5f8882614bd9565b9750614c6a83615362565b925050600181019050614c4b565b5085935050505092915050565b6000614c908261534c565b614c9a818561538d565b9350614ca58361531c565b8060005b83811015614cd6578151614cbd8882614bf1565b9750614cc88361536f565b925050600181019050614ca9565b5085935050505092915050565b614cec816154d6565b82525050565b614cfb8161550c565b82525050565b6000614d0c82615357565b614d16818561539e565b9350614d2681856020860161553f565b614d2f816156da565b840191505092915050565b60008154614d4781615572565b614d51818661539e565b94506001821660008114614d6c5760018114614d7e57614db1565b60ff1983168652602086019350614db1565b614d878561532c565b60005b83811015614da957815481890152600182019150602081019050614d8a565b808801955050505b50505092915050565b614dc381615502565b82525050565b614dd281615502565b82525050565b6000602082019050614ded6000830184614c18565b92915050565b6000606082019050614e086000830186614c18565b614e156020830185614c18565b614e226040830184614dc9565b949350505050565b6000604082019050614e3f6000830185614c18565b614e4c6020830184614dc9565b9392505050565b6000608082019050614e686000830187614c18565b614e756020830186614dc9565b614e826040830185614c18565b614e8f6060830184614dc9565b95945050505050565b60006020820190508181036000830152614eb28184614c27565b905092915050565b60006020820190508181036000830152614ed48184614c85565b905092915050565b6000602082019050614ef16000830184614ce3565b92915050565b6000604082019050614f0c6000830185614ce3565b614f196020830184614dc9565b9392505050565b6000602082019050614f356000830184614cf2565b92915050565b60006020820190508181036000830152614f558184614d01565b905092915050565b600060a0820190508181036000830152614f778188614d01565b90508181036020830152614f8b8187614d01565b90508181036040830152614f9f8186614d01565b90508181036060830152614fb38185614d01565b9050614fc26080830184614ce3565b9695505050505050565b60006060820190508181036000830152614fe68186614d01565b9050614ff56020830185614dc9565b6150026040830184614dc9565b949350505050565b600060a08201905081810360008301526150248188614d3a565b905081810360208301526150388187614d3a565b9050818103604083015261504c8186614d3a565b905081810360608301526150608185614d3a565b905061506f6080830184614ce3565b9695505050505050565b600060208201905061508e6000830184614dc9565b92915050565b6000610160820190506150aa600083018e614dc9565b6150b7602083018d614c18565b81810360408301526150c9818c614d01565b90506150d8606083018b614dc9565b6150e5608083018a614ce3565b6150f260a0830189614ce3565b6150ff60c0830188614ce3565b61510c60e0830187614dc9565b61511a610100830186614dc9565b615128610120830185614dc9565b615136610140830184614dc9565b9c9b505050505050505050505050565b600060608201905061515b6000830186614dc9565b6151686020830185614ce3565b6151756040830184614dc9565b949350505050565b60006080820190506151926000830187614dc9565b81810360208301526151a48186614d3a565b90506151b36040830185614dc9565b6151c06060830184614dc9565b95945050505050565b60006040820190506151de6000830185614dc9565b6151eb6020830184614dc9565b9392505050565b600060a0820190506152076000830188614dc9565b6152146020830187614dc9565b6152216040830186614dc9565b61522e6060830185614ce3565b61523b6080830184614ce3565b9695505050505050565b600060808201905061525a6000830187614dc9565b6152676020830186614dc9565b6152746040830185614dc9565b6152816060830184614dc9565b95945050505050565b60006152946152a5565b90506152a082826155a4565b919050565b6000604051905090565b600067ffffffffffffffff8211156152ca576152c96156ab565b5b602082029050602081019050919050565b600067ffffffffffffffff8211156152f6576152f56156ab565b5b6152ff826156da565b9050602081019050919050565b6000819050602082019050919050565b6000819050602082019050919050565b60008190508160005260206000209050919050565b600081519050919050565b600081519050919050565b600081519050919050565b6000602082019050919050565b6000602082019050919050565b600082825260208201905092915050565b600082825260208201905092915050565b600082825260208201905092915050565b60006153ba82615502565b91506153c583615502565b9250827fffffffffffffffffffffffffffffffffffffffffffffffffffffffffffffffff038211156153fa576153f961561e565b5b828201905092915050565b600061541082615502565b915061541b83615502565b92508261542b5761542a61564d565b5b828204905092915050565b600061544182615502565b915061544c83615502565b9250817fffffffffffffffffffffffffffffffffffffffffffffffffffffffffffffffff04831182151516156154855761548461561e565b5b828202905092915050565b600061549b82615502565b91506154a683615502565b9250828210156154b9576154b861561e565b5b828203905092915050565b60006154cf826154e2565b9050919050565b60008115159050919050565b600073ffffffffffffffffffffffffffffffffffffffff82169050919050565b6000819050919050565b60006155178261551e565b9050919050565b6000615529826154e2565b9050919050565b82818337600083830152505050565b60005b8381101561555d578082015181840152602081019050615542565b8381111561556c576000848401525b50505050565b6000600282049050600182168061558a57607f821691505b6020821081141561559e5761559d61567c565b5b50919050565b6155ad826156da565b810181811067ffffffffffffffff821117156155cc576155cb6156ab565b5b80604052505050565b60006155e082615502565b91507fffffffffffffffffffffffffffffffffffffffffffffffffffffffffffffffff8214156156135761561261561e565b5b600182019050919050565b7f4e487b7100000000000000000000000000000000000000000000000000000000600052601160045260246000fd5b7f4e487b7100000000000000000000000000000000000000000000000000000000600052601260045260246000fd5b7f4e487b7100000000000000000000000000000000000000000000000000000000600052602260045260246000fd5b7f4e487b7100000000000000000000000000000000000000000000000000000000600052604160045260246000fd5b6000601f19601f8301169050919050565b6156f4816154c4565b81146156ff57600080fd5b50565b61570b816154d6565b811461571657600080fd5b50565b61572281615502565b811461572d57600080fd5b5056fea264697066735822122003048a53e101d6cca3dab5d20b27594aa75d601c9bee1ff1302e8d772de7276764736f6c63430008040033",
  "immutableReferences": {},
  "source": "// SPDX-License-Identifier: GPL-3.0\r\n\r\nimport \"./CBToken.sol\";\r\n\r\npragma solidity >=0.7.0 <0.9.0;\r\n\r\ncontract Crowdfunding {\r\n    address admin;\r\n    string public name;\r\n    uint256 public projectCount = 0;\r\n    address[] accountsList;\r\n    CBToken public tokenContract;\r\n\r\n    mapping(address => Account) public accounts;\r\n\r\n    //address = address owner, uint = idProject;\r\n    mapping(address => mapping(uint256 => Project)) public projects;\r\n\r\n    mapping(uint256 => DetailProject) public detailProjects;\r\n    //uint = idProject, uint = idStateProject;\r\n    mapping(uint256 => mapping(uint256 => StateProject)) public stateProjects;\r\n\r\n    //uint = idProject, address = address rase;\r\n    mapping(uint256 => mapping(address => uint256)) public rases;\r\n\r\n    //---------------struct-------------------\r\n    struct Project {\r\n        uint256 id;\r\n        address owner;\r\n        string name;\r\n        uint256 amount;\r\n        bool isApprove;\r\n        bool isFinished;\r\n        bool isCreated;\r\n        uint256 state;\r\n        uint256 rased;\r\n        uint256 coinReceipt;\r\n        uint256 stateCount;\r\n    }\r\n\r\n    struct DetailProject {\r\n        string desc;\r\n        uint256 startDate;\r\n        uint256 endDate;\r\n        address[] investors;\r\n    }\r\n\r\n    struct StateProject {\r\n        uint256 endDate;\r\n        uint256 percentApproved;\r\n        uint256 percentRemoved;\r\n        bool isApprove;\r\n        bool isCreated;\r\n        mapping(address => bool) voted;\r\n    }\r\n\r\n    struct Account {\r\n        string name;\r\n        string email;\r\n        string password;\r\n        string accountType;\r\n        bool isReg;\r\n        uint256[] projects;\r\n    }\r\n\r\n    //---------------event-------------------\r\n    event CreatedAccount(\r\n        string name,\r\n        string email,\r\n        string password,\r\n        string accountType,\r\n        bool isReg\r\n    );\r\n\r\n    event CreateProject(\r\n        uint256 id,\r\n        string name,\r\n        uint256 amount,\r\n        uint256 ownerProjectLength\r\n    );\r\n\r\n    event CreateStateProject(\r\n        uint256 endDate,\r\n        bool isApprove,\r\n        uint256 stateCount\r\n    );\r\n\r\n    event SetApproveProject(bool isApprove);\r\n\r\n    event SetFinishProject(bool isFinish, uint256 state);\r\n\r\n    event ChangeStateProject(uint256 state);\r\n\r\n    event SetApproveStateProject(uint256 coinReceipt, uint256 balanceContract);\r\n\r\n    event RemoveProject(uint256 refunc);\r\n\r\n    event FundProject(\r\n        uint256 amount,\r\n        uint256 rased,\r\n        uint256 payment,\r\n        uint256 balanceContract\r\n    );\r\n\r\n    event SetInvestorApproved(\r\n        address investor,\r\n        uint256 iPproject,\r\n        address owner,\r\n        uint256 percent\r\n    );\r\n\r\n    event SetInvestorRejected(\r\n        address investor,\r\n        uint256 project,\r\n        address owner,\r\n        uint256 percent\r\n    );\r\n\r\n    constructor(CBToken _tokenContract) {\r\n        admin = msg.sender;\r\n        tokenContract = _tokenContract;\r\n        name = \"Crowdfunding\";\r\n    }\r\n\r\n    //---------------function-------------------\r\n\r\n    function getAccountList() public view returns (address[] memory) {\r\n        return accountsList;\r\n    }\r\n\r\n    function getProjects() public view returns (uint256[] memory) {\r\n        return accounts[msg.sender].projects;\r\n    }\r\n\r\n    function getInvestor(uint256 idProject)\r\n        public\r\n        view\r\n        returns (address[] memory)\r\n    {\r\n        return detailProjects[idProject].investors;\r\n    }\r\n\r\n    function checkVoted(uint256 idProject, address owner)\r\n        public\r\n        view\r\n        returns (bool voted)\r\n    {\r\n        Project storage project = projects[owner][idProject];\r\n        require(project.isApprove);\r\n        return stateProjects[idProject][project.state].voted[msg.sender];\r\n    }\r\n\r\n    //---------------Startup--------------------\r\n    function createAccountStartup(\r\n        string memory _name,\r\n        string memory _password,\r\n        string memory _email\r\n    ) public {\r\n        require(bytes(_name).length > 0);\r\n        require(bytes(_email).length > 0);\r\n        require(bytes(_password).length > 0);\r\n        require(!accounts[msg.sender].isReg);\r\n\r\n        Account storage account = accounts[msg.sender];\r\n\r\n        account.name = _name;\r\n        account.email = _email;\r\n        account.password = _password;\r\n        account.accountType = \"Startup\";\r\n        account.isReg = true;\r\n\r\n        accounts[msg.sender] = account;\r\n\r\n        accountsList.push(msg.sender);\r\n\r\n        emit CreatedAccount(\r\n            accounts[msg.sender].name,\r\n            accounts[msg.sender].email,\r\n            accounts[msg.sender].password,\r\n            accounts[msg.sender].accountType,\r\n            accounts[msg.sender].isReg\r\n        );\r\n    }\r\n\r\n    function createProject(\r\n        string memory _name,\r\n        string memory _desc,\r\n        uint256 _startDate,\r\n        uint256 _endDate,\r\n        uint256 amount\r\n    ) public {\r\n        require(bytes(_name).length > 0);\r\n        require(bytes(_desc).length > 0);\r\n        require(_startDate > 0);\r\n        require(_endDate > 0);\r\n        require(amount > 0);\r\n\r\n        require(!projects[msg.sender][projectCount + 1].isCreated);\r\n        require(msg.sender != address(0x0));\r\n\r\n        projectCount++;\r\n\r\n        Project storage p = projects[msg.sender][projectCount];\r\n\r\n        p.id = projectCount;\r\n        p.owner = (msg.sender);\r\n        p.name = _name;\r\n        p.amount = amount;\r\n        p.isApprove = false;\r\n        p.isFinished = false;\r\n        p.isCreated = true;\r\n        p.state = 0;\r\n        p.rased = 0;\r\n        p.stateCount = 0;\r\n        p.coinReceipt = 0;\r\n\r\n        DetailProject storage dp = detailProjects[p.id];\r\n        dp.desc = _desc;\r\n        dp.startDate = _startDate;\r\n        dp.endDate = _endDate;\r\n\r\n        detailProjects[p.id] = dp;\r\n        projects[msg.sender][projectCount] = p;\r\n        accounts[msg.sender].projects.push(p.id);\r\n\r\n        emit CreateProject(\r\n            p.id,\r\n            p.name,\r\n            p.amount,\r\n            accounts[msg.sender].projects.length\r\n        );\r\n    }\r\n\r\n    //to cc ct mc cho d n (startup)\r\n    function createStateProject(uint256 idProject, uint256[] memory endDate)\r\n        public\r\n    {\r\n        //check project exists\r\n        require(projects[msg.sender][idProject].isCreated);\r\n\r\n        Project storage target = projects[msg.sender][idProject];\r\n        projects[msg.sender][idProject].stateCount = 0;\r\n        for (uint256 i = 1; i <= endDate.length; i += 1) {\r\n            StateProject storage sp = stateProjects[target.id][i];\r\n\r\n            sp.endDate = endDate[i - 1];\r\n            sp.percentApproved = 0;\r\n            sp.percentRemoved = 0;\r\n            sp.isApprove = false;\r\n            sp.isCreated = true;\r\n\r\n            projects[msg.sender][idProject].stateCount += 1;\r\n\r\n            emit CreateStateProject(\r\n                sp.endDate,\r\n                sp.isApprove,\r\n                projects[msg.sender][idProject].stateCount\r\n            );\r\n        }\r\n    }\r\n\r\n    //thit lp  hon thnh d n. (startup)\r\n    function setFinishProject(uint256 idProject) public {\r\n        require(projects[msg.sender][idProject].isCreated);\r\n        require(projects[msg.sender][idProject].isApprove);\r\n        require(!projects[msg.sender][idProject].isFinished);\r\n        Project storage target = projects[msg.sender][idProject];\r\n        StateProject storage sp = stateProjects[idProject][target.state];\r\n        if (target.state == target.stateCount && sp.isApprove) {\r\n            target.isFinished = true;\r\n        }\r\n        projects[msg.sender][idProject] = target;\r\n\r\n        emit SetFinishProject(target.isFinished, target.state);\r\n    }\r\n\r\n    //chuyn i qua ct mc tip theo ca d n. (startup)\r\n    function changeStateProject(uint256 idProject) public returns (bool) {\r\n        require(projects[msg.sender][idProject].isCreated);\r\n        require(projects[msg.sender][idProject].isApprove);\r\n        require(!projects[msg.sender][idProject].isFinished);\r\n        bool flag = false;\r\n        Project storage target = projects[msg.sender][idProject];\r\n        if (target.state != 0) {\r\n            StateProject storage sp = stateProjects[target.id][target.state];\r\n            if (sp.isApprove) {\r\n                target.state += 1;\r\n                flag = true;\r\n            }\r\n        } else {\r\n            if (target.rased == target.amount) {\r\n                flag = true;\r\n                target.state += 1;\r\n            }\r\n        }\r\n\r\n        projects[msg.sender][idProject] = target;\r\n\r\n        emit ChangeStateProject(target.state);\r\n\r\n        return flag;\r\n    }\r\n\r\n    //hy b d n (startup)\r\n    function removeProject(uint256 idProject, address owner) public {\r\n        require(!projects[owner][idProject].isFinished);\r\n        require(projects[owner][idProject].isApprove);\r\n        Project storage target = projects[owner][idProject];\r\n        DetailProject storage detail = detailProjects[idProject];\r\n        uint256 refunc;\r\n        if (\r\n            msg.sender == admin ||\r\n            msg.sender == target.owner ||\r\n            stateProjects[idProject][target.state].percentRemoved >= 51\r\n        ) {\r\n            for (uint256 i = 0; i < detail.investors.length; i += 1) {\r\n                address investor = detail.investors[i];\r\n\r\n                uint256 rased = rases[idProject][investor];\r\n                uint256 payment;\r\n                if (target.rased == target.amount) {\r\n                    uint256 available = target.rased - target.coinReceipt;\r\n\r\n                    payment = mul((available * rased), target.amount);\r\n                } else {\r\n                    payment = rased;\r\n                }\r\n\r\n                refunc += payment;\r\n\r\n                //investor.transfer(payment);\r\n                tokenContract.transfer(investor, payment);\r\n            }\r\n\r\n            target.isFinished = true;\r\n            projects[owner][idProject] = target;\r\n        }\r\n        emit RemoveProject(refunc);\r\n    }\r\n\r\n    //---------------Investor--------------------\r\n\r\n    function mul(uint256 x, uint256 y) public pure returns (uint256 z) {\r\n        uint256 result = x / y;\r\n        uint256 result1 = (x * 10) / y;\r\n        uint256 result2 = result * 10 + 5;\r\n        if (result1 >= result2) {\r\n            result = result + 1;\r\n        }\r\n        return result;\r\n    }\r\n\r\n    function createAccountInvestor(\r\n        string memory _name,\r\n        string memory _password,\r\n        string memory _email\r\n    ) public {\r\n        require(bytes(_name).length > 0);\r\n        require(bytes(_email).length > 0);\r\n        require(bytes(_password).length > 0);\r\n        require(!accounts[msg.sender].isReg);\r\n\r\n        Account storage account = accounts[msg.sender];\r\n\r\n        account.name = _name;\r\n        account.email = _email;\r\n        account.password = _password;\r\n        account.accountType = \"Investor\";\r\n        account.isReg = true;\r\n\r\n        accounts[msg.sender] = account;\r\n\r\n        emit CreatedAccount(\r\n            accounts[msg.sender].name,\r\n            accounts[msg.sender].email,\r\n            accounts[msg.sender].password,\r\n            accounts[msg.sender].accountType,\r\n            accounts[msg.sender].isReg\r\n        );\r\n    }\r\n\r\n    //chuyn tin u t n d n (investor)\r\n    function fundProject(\r\n        uint256 idProject,\r\n        address owner,\r\n        uint256 amount\r\n    ) public {\r\n        require(projects[owner][idProject].isApprove);\r\n        require(projects[owner][idProject].isCreated);\r\n        require(\r\n            projects[owner][idProject].amount !=\r\n                projects[owner][idProject].rased\r\n        );\r\n        uint256 payment;\r\n        //update rased project\r\n        Project storage p = projects[owner][idProject];\r\n        DetailProject storage dp = detailProjects[p.id];\r\n\r\n        if (p.amount - p.rased != 0) {\r\n            if (amount > p.amount - p.rased) {\r\n                payment = p.amount - p.rased;\r\n\r\n                //payable(msg.sender).transfer(amount - payment);\r\n            } else {\r\n                payment = amount;\r\n                //tokenContract.transferFrom(msg.sender, address(this), payment);\r\n                //payable(msg.sender).transfer(0);\r\n            }\r\n            tokenContract.transferFrom(msg.sender, address(this), payment);\r\n            if (rases[p.id][msg.sender] == 0) {\r\n                dp.investors.push((msg.sender));\r\n            }\r\n\r\n            p.rased += payment;\r\n\r\n            rases[idProject][msg.sender] += payment;\r\n\r\n            projects[owner][idProject] = p;\r\n        }\r\n\r\n        emit FundProject(\r\n            p.amount,\r\n            p.rased,\r\n            payment,\r\n            tokenContract.balanceOf(address(this))\r\n        );\r\n    }\r\n\r\n    //---------------Admin--------------------\r\n    //chp nhn nhng d n  to ct mc.(admin)\r\n    function setApproveProject(uint256 idProject, address owner) public {\r\n        require(msg.sender == admin);\r\n        require(projects[owner][idProject].isCreated);\r\n        require(!projects[owner][idProject].isFinished);\r\n        require(projects[owner][idProject].stateCount > 0);\r\n\r\n        Project storage target = projects[owner][idProject];\r\n\r\n        if (target.stateCount >= 3) {\r\n            target.isApprove = true;\r\n        }\r\n\r\n        projects[owner][idProject] = target;\r\n\r\n        emit SetApproveProject(target.isApprove);\r\n    }\r\n\r\n    //chp nhn ct mc tip theo ca d n (admin)\r\n    function setApproveStateProject(uint256 idProject, address owner) public {\r\n        require(projects[owner][idProject].isCreated);\r\n        require(!projects[owner][idProject].isFinished);\r\n        require(projects[owner][idProject].stateCount > 0);\r\n\r\n        Project storage target = projects[owner][idProject];\r\n        require((!stateProjects[idProject][target.state].isApprove));\r\n        uint256 coinReceipt;\r\n        if (\r\n            !stateProjects[idProject][target.state].isApprove &&\r\n            stateProjects[idProject][target.state].percentApproved > 51\r\n        ) {\r\n            if (target.state != target.stateCount) {\r\n                coinReceipt = mul(target.amount, target.stateCount);\r\n                target.coinReceipt += coinReceipt;\r\n            } else {\r\n                coinReceipt = target.rased - target.coinReceipt;\r\n                target.coinReceipt = target.rased;\r\n            }\r\n\r\n            stateProjects[idProject][target.state].isApprove = true;\r\n            projects[owner][idProject] = target;\r\n\r\n            tokenContract.transfer(target.owner, coinReceipt);\r\n        }\r\n\r\n        emit SetApproveStateProject(\r\n            target.coinReceipt,\r\n            tokenContract.balanceOf(address(this))\r\n        );\r\n    }\r\n\r\n    function setInvestorApproved(uint256 idProject, address owner) public {\r\n        require(projects[owner][idProject].isCreated);\r\n        require(!projects[owner][idProject].isFinished);\r\n        require(projects[owner][idProject].stateCount > 0);\r\n\r\n        Project storage target = projects[owner][idProject];\r\n        require((!stateProjects[idProject][target.state].isApprove));\r\n\r\n        StateProject storage state = stateProjects[idProject][target.state];\r\n        require(!state.voted[msg.sender]);\r\n        uint256 rased = rases[idProject][msg.sender];\r\n\r\n        uint256 percentRase = mul((rased * 100), target.amount);\r\n\r\n        state.percentApproved += percentRase;\r\n\r\n        state.voted[msg.sender] = true;\r\n\r\n        emit SetInvestorApproved(\r\n            msg.sender,\r\n            idProject,\r\n            owner,\r\n            state.percentApproved\r\n        );\r\n        setApproveStateProject(idProject, owner);\r\n    }\r\n\r\n    function setInvestorRejected(uint256 idProject, address owner) public {\r\n        require(projects[owner][idProject].isCreated);\r\n        require(!projects[owner][idProject].isFinished);\r\n        require(projects[owner][idProject].stateCount > 0);\r\n\r\n        Project storage target = projects[owner][idProject];\r\n        require((!stateProjects[idProject][target.state].isApprove));\r\n\r\n        StateProject storage state = stateProjects[idProject][target.state];\r\n        require(!state.voted[msg.sender]);\r\n        uint256 rased = rases[idProject][msg.sender];\r\n\r\n        uint256 percentRase = mul((rased * 100), target.amount);\r\n\r\n        state.percentRemoved += percentRase;\r\n\r\n        state.voted[msg.sender] = true;\r\n\r\n        emit SetInvestorRejected(\r\n            msg.sender,\r\n            idProject,\r\n            owner,\r\n            state.percentRemoved\r\n        );\r\n\r\n        removeProject(idProject, owner);\r\n    }\r\n}\r\n",
  "sourcePath": "D:/Disc D/CNTT/CNM/git/blockchain-crowdfunding/src/contracts/Crowdfunding.sol",
  "compiler": {
    "name": "solc",
    "version": "0.8.4+commit.c7e474f2.Emscripten.clang"
  },
  "schemaVersion": "3.4.1",
  "updatedAt": "2021-06-26T17:38:34.303Z",
  "networkType": "ethereum",
  "devdoc": {
    "kind": "dev",
    "methods": {},
    "version": 1
  },
  "userdoc": {
    "kind": "user",
    "methods": {},
    "version": 1
  }
}